:020000040800F2
:1000000060040020010100086F0A0008190A0008B6
:100010006D0A00081B020008BD0A0008000000006D
:10002000000000000000000000000000730A00084B
:100030001D02000800000000710A0008750A00088F
:100040001B0100081B0100081B0100081B01000820
:100050001B0100081B0100081B0100081B01000810
:100060001B0100081B0100081B0100081B01000800
:100070001B0100081B0100081B0100081B010008F0
:100080001B0100081B0100081B0100081B010008E0
:100090001B0100081B0100081B0100081B010008D0
:1000A0001B0100081B0100081B0100081B010008C0
:1000B0001B0100081B010008000000001B010008D4
:1000C0001B01000800000000000000001B010008E8
:1000D000000000001B0100081B01000800000000D8
:1000E0001B0100081B0100081B010008DFF80CD0F1
:1000F00000F072F8004800478915000860040020ED
:100100000648804706480047FEE7FEE7FEE7FEE7B1
:10011000FEE7FEE7FEE7FEE7FEE7FEE7BB0A0008B4
:10012000ED000008202A04DB203A21FA02F0002129
:10013000704721FA02F3D040C2F1200291400843F7
:1001400019467047D2B201E000F8012B491EFBD2DC
:1001500070470022F6E710B513460A4604461946D2
:10016000FFF7F0FF204610BD421C10F8011B0029CC
:10017000FBD1801A70472DE9F05F054600209246BA
:100180009B4688460646814640241BE02846414659
:1001900047462246FFF7C6FF53465A46C01A9141CA
:1001A00010D311461846224600F028F82D1A67EBA6
:1001B00001084F4622460120002100F01FF817EBEE
:1001C00000094E41201EA4F10104DFDC48463146FF
:1001D0002A464346BDE8F09F064C074D06E0E0681E
:1001E00040F0010394E8070098471034AC42F6D37E
:1001F000FFF780FF4816000868160008202A04DB75
:10020000203A00FA02F1002070479140C2F1200329
:1002100020FA03F3194390407047FEE7704700004F
:1002200070B5044600F0F8F80546601C02D004489A
:100230000078044400F0F0F8401BA042FAD370BDEF
:10024000500000202DE9F84FDFF89C91002409F1BF
:10025000040A0AF1040B23460F270BF1040EBBE03E
:100260000125A5402A40AA4276D1DFF880C14E6818
:10027000A6EB0C0866452BD00DDC032E34D005DC34
:1002800036B3012E19D0022E2FD11BE0112E16D01D
:10029000122E2AD119E0B8F5881F19D006DCB8F55E
:1002A000803F15D0B8F5801F1FD111E0B8F5001FB1
:1002B0000ED0B8F5041F18D10AE0CB6815E0CB6862
:1002C0001B1D12E0CB6808330FE0CB680C330CE049
:1002D0008B682BB1012B4FF0080303D0456104E07C
:1002E000042302E0056100E00023FF2A01D806464E
:1002F00001E000F104064FEA840501D9A5F12005CB
:10030000D6F8008007FA05FC28EA0C0803FA05F580
:1003100048EA0508C6F800804D68ED005BD5344D0D
:10032000AE6946F00106AE61AD6924F0030605F042
:10033000010500952F4D06EB050CDCF80850A607CB
:10034000360F07FA06F825EA0805DFF8AC804045C5
:1003500003D14FF0000810E03DE0DFF8A0804045F9
:1003600002D14FF0010808E0DFF89480404502D147
:100370004FF0020801E04FF0030808FA06F848EAD7
:100380000508CCF808804D68D9F80060ED034D46AB
:1003900001D5164300E096432E604D68DAF8006000
:1003A000AD03554601D5164300E096432E604D68D7
:1003B000DBF80060ED025D4601D5164300E0964390
:1003C0002E604D68DEF80060AD02754601D516431B
:1003D00000E096432E60641C0A6832FA04F57FF44C
:1003E0003FAFBDE8F88F000000040140000011108D
:1003F000001002400000014000080140000C0140D4
:10040000001001408068084000D0012070470AB108
:10041000016170470904FBE70148806870470000EC
:1004200050000020024881680278114481607047C2
:1004300050000020074810B5016841F0100101602C
:10044000032000F067F8002000F006F800F024F820
:10045000002010BD0020024070B50D4D04464FF441
:100460007A712878B1FBF0F00A490968B1FBF0F025
:1004700000F0BEFA48B9102C07D200222146501EC7
:1004800000F028F800206C6070BD012070BD0000F5
:10049000500000205C0000200C4808B5816941F044
:1004A00001018161816901F001010091C16941F09F
:1004B0008051C161C06900F08050009004484168DB
:1004C00021F0E06141F08061416008BD0010024010
:1004D00000000140F0B40E4B1B680C46C3F302232E
:1004E000C3F10705042D00D90425191D072901D2E0
:1004F000002300E0DB1E012606FA05F1491E21401B
:1005000099409E40761E16403143F0BC00F0ECBA94
:100510000CED00E0064900F0070208684FF6FF0303
:10052000184040EA0220034A104308607047000068
:100530000CED00E00000FA052DE9F0470F4605003C
:1005400061D0434E306800F00700B84209D23068ED
:1005500020F0070038433060306800F00700B842F0
:1005600051D128683B4C810712D5400703D56068FC
:1005700040F4E06060602878000703D5606840F4CC
:10058000605060606068A96820F0F0000843606017
:100590002878C00728D06868012810D02168022870
:1005A00010D0890700292EDA616821F00301014388
:1005B0006160FFF731FF804641F288390DE0216824
:1005C0008903EFE78901EDE7FFF726FFA0EB0801BC
:1005D000494502D90320BDE8F0876068696800F0EA
:1005E0000C00B0EB810FEFD1306800F00700B8428B
:1005F0000BD9306820F0070038433060306800F0D5
:100600000700B84201D00120E5E72878400705D56A
:100610006068E96820F4E0600843606028780007BB
:1006200006D56068296920F4605040EAC100606026
:1006300000F018F86168084AC1F30311515CC84022
:100640000649086006480068FFF706FF0020C2E779
:100650000020024000100240381600085C00002014
:100660005400002012A185B00FC98DE80F0014A01E
:10067000144A006804905168134801F00C03042BDD
:1006800010D0082B0ED1C1F38343C9031DF803001A
:100690000AD5516804AAC1F34041515C0A4A50434B
:1006A000B0FBF1F005B0704708494843FAE7000095
:1006B00002030405060708090A0B0C0D0E0F1010A3
:1006C000010200000010024000127A0000093D0003
:1006D0002DE9F84F040070D02078C04DC00749D0F4
:1006E0006868C0F38100012807D06868C0F3810002
:1006F000022809D16868C00306D52868800339D567
:1007000060680028E7D035E06068B0F5803F0BD026
:1007100010B1B0F5A02F11D0286820F480302860E7
:10072000286820F4802002E0286840F480302860A7
:10073000606890B1FFF770FE06460AE0286840F452
:1007400080202860F0E700BFFFF766FE801B64286A
:1007500073D828688003F7D50CE0FFF75DFE0646E6
:1007600005E000BFFFF758FE801B6428F0D828681A
:100770008003F7D420789A4E80074FF001094FF09C
:10078000000839D5686810F00C0F07D06868C0F30E
:100790008100022809D16868C00306D42868800750
:1007A00014D52069012808D110E02069B0B1C6F83D
:1007B0000090FFF731FE074605E00AE1FFF72CFE47
:1007C000C01B0228C4D828688007F7D5286861694B
:1007D00020F0F80040EAC10028600DE0C6F8008073
:1007E000FFF71AFE074604E0FFF716FEC01B0228BB
:1007F00023D828688007F7D4207800072CD57948BB
:10080000A169D9B1C0F80090FFF706FE074604E0E1
:10081000FFF702FEC01B02280FD8686A8007F7D5D1
:1008200071484FF4FA510068B0FBF1F0009000BF3E
:100830000098411E0091FAD20EE080E0C0F80080DE
:10084000FFF7EAFD074604E0FFF7E6FDC01B0228BC
:1008500075D8686A8007F7D42078400760D5E869C2
:100860000027C00008D4E86940F08050E861E869DA
:10087000012700F0805000905C480168C90513D43E
:100880000168834641F480710160FFF7C5FD82462F
:1008900006E000BFFFF7C0FDA0EB0A0064284ED8B9
:1008A000DBF80000C005F5D5E06801280AD008B1E2
:1008B000052813D0286A20F001002862286A20F059
:1008C000040002E0286A40F001002862E06841F27A
:1008D000883B98B1FFF7A0FD82460BE0286A40F004
:1008E00004002862EEE700BFFFF796FDA0EB0A01C7
:1008F00059455AD8286A8007F6D50CE0FFF78CFDD9
:10090000824605E0FFF788FDA0EB0A0159454CD867
:10091000286A8007F6D41FB1E86920F08050E861AA
:10092000E06988B36968C1F38101022944D00228D3
:10093000C6F8608004D0FFF76FFD044638E034E06D
:10094000FFF76AFD074604E0FFF766FDC01B0228BB
:100950002BD828688001F7D4206AB0F5803F05D1F4
:100960006868A16820F4003008436860D4E9080191
:100970000843696821F4741108436860C6F8609000
:10098000FFF74AFD044606E025E000BFFFF744FDFF
:10099000001B022809D828688001F7D51BE000BF9A
:1009A000FFF73AFD001B022802D90320BDE8F88FAB
:1009B00028688001F4D40EE00128F7D06868226A24
:1009C00000F48031914204D1616A00F470108842D1
:1009D00001D00120EAE70020E8E700000010024013
:1009E00000004242800442425C000020007000404F
:1009F00010B5401EB0F1807F01D3012010BD4FF033
:100A0000E02460610F21601700F06EF80020A06103
:100A100007202061002010BDFEE7000070B586B001
:100A2000002410480094019402940394816941F0D9
:100A30000401816180690C4E00F0040040F6FF75EE
:100A40000490224629463046FFF7E1FC012000953C
:100A5000CDE901040220039069463046FFF7F2FB1E
:100A600006B070BD0010024000080140FEE770476C
:100A700070477047FFF7D6BC10B590B02821684684
:100A8000FFF767FB14210AA8FFF763FB0220009021
:100A90000120049010200024059007946846FFF779
:100AA00017FE0F20CDE90A040C940D9400210AA82A
:100AB0000E94FFF741FD10B010BD7047FEE7000037
:100AC0000FB4084B10B504A902AA039800F02CF843
:100AD000044602A9002000F03DF9204610BC5DF854
:100AE00014FB0000550D00080907090E002804DB5F
:100AF00000F1E02080F80014704700F00F0000F1D2
:100B0000E02080F8141D704702E008C8121F08C1D9
:100B1000002AFAD170477047002001E001C1121F7E
:100B2000002AFBD1704700002DE9FF4F8BB09A4699
:100B30000F460446002606E025280BD052460D99A4
:100B40009047641C761C20780028F5D10FB0304601
:100B5000BDE8F08F0025A94601227D4900E005434C
:100B600014F8013F203B02FA03F00842F7D1207845
:100B70002E2817D114F8010F45F004052A280ED0AD
:100B80006FF02F022078A0F1300109290AD809EB73
:100B9000890102EB410100EB0109641CF2E757F8FF
:100BA000049B641C20786C280DD004DC4C2812D0E7
:100BB0006A2811D104E074280DD07A280CD10AE0FB
:100BC00045F4001507E0617845F48015814202D1B3
:100BD000641C05F58015641C207869283ED006DC6D
:100BE0000028B3D063280BD0642804D136E07328E2
:100BF00010D075285CD052460D999047761CA5E020
:100C000017F8040B8DF8000000208DF80100E8466D
:100C1000012003E057F8048B4FF0FF3069074FF0D5
:100C2000000501D40AE06D1C4D450DDA8542FADB62
:100C300018F805100029F6D106E06D1C8542FCDB92
:100C400018F805100029F8D12E4404E018F8010B1B
:100C500052460D9990476D1EF8D277E000200A9019
:100C6000C5F302504FF00A0B02280CD001CFC11778
:100C7000021E71F100020CDA0023D0EB030063EBDB
:100C800001012D2208E0FF1D27F00707F7E8020108
:100C9000EEE72A0504D52B228DF82420012203E05B
:100CA000EA070FD02022F7E70DF12008089218E09C
:100CB00000200A90C5F302504FF00A0B022803D01F
:100CC00001CF00210022EFE7FF1D27F00707F7E81B
:100CD0000201F7E75A460A9BFFF74DFA303208F84F
:100CE000012D50EA0102F5D1ADEB080000F1200B17
:100CF000680701D44FF00109D94502DDA9EB0B00CB
:100D000000E000208146002506E009A85246405D2B
:100D10000D9990476D1C761C08988542F5DB04E020
:100D2000302052460D999047761CB9F10001A9F187
:100D30000109F5DC05E018F8010B52460D999047C2
:100D4000761CBBF10001ABF1010BF4DC641CFAE68C
:100D5000092801000A68531C0B60107070470000DE
:100D60002DE9FF474FF4806501AA002001240226E7
:100D7000009582E85100DFF8448069464046FFF75D
:100D800061FA0E4FE002103738600120FFF748FA91
:100D900029464046FFF736FB8146E00638600120D1
:100DA000FFF73EFACDE90054CDE9024669464046D8
:100DB000FFF748FA04B04846BDE8F0870008014054
:100DC00010B5094C4FF0806020600120FFF728FA31
:100DD000E01420600120FFF723FAE0052060BDE861
:100DE00010400120FFF71CBA1008014010B5094C53
:100DF0004FF4806020600120FFF712FAE0142060B9
:100E00000120FFF70DFAE0052060BDE81040012049
:100E1000FFF706BA1008014010B50446000602D4D8
:100E2000FFF7CEFF01E0FFF7E1FF600602D4FFF716
:100E3000C7FF01E0FFF7DAFFA00602D4FFF7C0FF0B
:100E400001E0FFF7D3FFE00602D4FFF7B9FF01E0AE
:100E5000FFF7CCFF200702D4FFF7B2FF01E0FFF756
:100E6000C5FF600702D4FFF7ABFF01E0FFF7BEFF4D
:100E7000A00702D4FFF7A4FF01E0FFF7B7FFE007E8
:100E800003D0BDE81040FFF7B1BFBDE81040FFF749
:100E900097BF102910DA48B1012809D0022809D0DB
:100EA000032809D1D431C8B200F016B88031FAE76E
:100EB000C031F8E79431F6E7704770B50646002474
:100EC000FFF752F9054603E0305D00F029F8641C95
:100ED000AC42F9DD70BD000070B5104D0446002233
:100EE0004FF400712846FFF792FA0C49FF201431A5
:100EF0000860081F04608415012221462846FFF778
:100F000086FA0120FFF78CF9002221462846FFF7D8
:100F10007EFABDE870400120FFF782B90008014069
:100F200070B5104D0446012251022846FFF76FFAB2
:100F30000C49FF2014310860081F04608415012249
:100F400021462846FFF763FA0120FFF769F90022DE
:100F500021462846FFF75BFABDE870400120FFF705
:100F60005FB900000008014010B53820FFF7B4FF5A
:100F70000E20FFF7B1FF0620FFF7AEFF0120FFF7BD
:100F8000ABFFBDE810406420FFF74AB92DE9FF5FD1
:100F900000244FF4806701AA204601264FF0020981
:100FA000009782E84102DFF8648069464046FFF717
:100FB00049F9164F00254FF4006A10374FF0006BC7
:100FC000C7F800A00120FFF72BF960064FEA106870
:100FD0004FF480610D48FFF715FA40EA0804C7F89E
:100FE00000B00120FFF71CF96D1C082DE8DB4FF461
:100FF0008060CDE90006CDE9026969460348FFF744
:1010000021F904B060B2BDE8F09F00000008014083
:1010100070B500F0D9FAEE20FFF7FEFEFFF7A0FE54
:10102000AA20FFF7F9FEFFF79BFE00F0CDFAEF20B4
:10103000FFF7F2FEFFF794FEFFF7A8FF0446FFF765
:10104000D5FE00F0DDFA00F0BFFAEE20FFF7E4FE77
:10105000FFF786FEAB20FFF7DFFEFFF781FE00F013
:10106000B3FAEF20FFF7D8FEFFF77AFEFFF78EFF07
:10107000C5B2FFF7BBFE00F0C3FA05EB0420FE4C3F
:10108000208000F0A1FAEE20FFF7C6FEFFF768FE11
:10109000AC20FFF7C1FEFFF763FE00F095FAEF20EA
:1010A000FFF7BAFEFFF75CFEFFF770FF0546FFF79C
:1010B0009DFE00F0A5FA00F087FAEE20FFF7ACFEE7
:1010C000FFF74EFEAD20FFF7A7FEFFF749FE00F049
:1010D0007BFAEF20FFF7A0FEFFF742FEFFF756FF77
:1010E000C6B2FFF783FE00F08BFA06EB05206080A6
:1010F00000F06AFAEE20FFF78FFEFFF731FEAE2018
:10110000FFF78AFEFFF72CFE00F05EFAEF20FFF7F4
:1011100083FEFFF725FEFFF739FF0546FFF766FE62
:1011200000F06EFA00F050FAEE20FFF775FEFFF7C0
:1011300017FEAF20FFF770FEFFF712FE00F044FA33
:10114000EF20FFF769FEFFF70BFEFFF71FFFC6B2A8
:10115000FFF74CFE00F054FA06EB0520A08000F0EB
:1011600033FAEE20FFF758FEFFF7FAFDB020FFF745
:1011700053FEFFF7F5FD00F027FAEF20FFF74CFED6
:10118000FFF7EEFDFFF702FF0546FFF72FFE00F029
:1011900037FA00F019FAEE20FFF73EFEFFF7E0FD08
:1011A000B120FFF739FEFFF7DBFD00F00DFAEF206D
:1011B000FFF732FEFFF7D4FDFFF7E8FEC6B2FFF7F8
:1011C00015FE00F01DFA06EB0520208200F0FCF968
:1011D000EE20FFF721FEFFF7C3FDB220FFF71CFE54
:1011E000FFF7BEFD00F0F0F9EF20FFF715FEFFF767
:1011F000B7FDFFF7CBFE0546FFF7F8FD00F000FA5C
:1012000000F0E2F9EE20FFF707FEFFF7A9FDB3209B
:10121000FFF702FEFFF7A4FD00F0D6F9EF20FFF77D
:10122000FBFDFFF79DFDFFF7B1FEC6B2FFF7DEFD48
:1012300000F0E6F906EB0520608200F0C5F9EE202B
:10124000FFF7EAFDFFF78CFDB420FFF7E5FDFFF7A0
:1012500087FD00F0B9F9EF20FFF7DEFDFFF780FD15
:10126000FFF794FE0546FFF7C1FD00F0C9F900F055
:10127000ABF9EE20FFF7D0FDFFF772FDB520FFF7C9
:10128000CBFDFFF76DFD00F09FF9EF20FFF7C4FDE8
:10129000FFF766FDFFF77AFEC6B2FFF7A7FD00F085
:1012A000AFF906EB0520A08200F08EF9EE20FFF7E3
:1012B000B3FDFFF755FDB620FFF7AEFDFFF750FD7C
:1012C00000F082F9EF20FFF7A7FDFFF749FDFFF7D8
:1012D0005DFE0546FFF78AFD00F092F900F074F913
:1012E000EE20FFF799FDFFF73BFDB720FFF794FDD8
:1012F000FFF736FD00F068F9EF20FFF78DFDFFF7EF
:101300002FFDFFF743FEC6B2FFF770FD00F078F93E
:1013100006EB0520E08000F057F9EE20FFF77CFD9A
:10132000FFF71EFDB820FFF777FDFFF719FD00F06E
:101330004BF9EF20FFF770FDFFF712FDFFF726FED8
:101340000546FFF753FD00F05BF900F03DF9EE2094
:10135000FFF762FDFFF704FDB920FFF75DFDFFF722
:10136000FFFC00F031F9EF20FFF756FDFFF7F8FC26
:10137000FFF70CFEC6B2FFF739FD00F041F906EBAE
:101380000520208100F020F9EE20FFF745FDFFF752
:10139000E7FCBA20FFF740FDFFF7E2FC00F014F98C
:1013A000EF20FFF739FDFFF7DBFCFFF7EFFD054608
:1013B000FFF71CFD00F024F900F006F9EE20FFF71E
:1013C0002BFDFFF7CDFCBB20FFF726FDFFF7C8FC88
:1013D00000F0FAF8EF20FFF71FFDFFF7C1FCFFF761
:1013E000D5FDC6B2FFF702FD00F00AF906EB0520B5
:1013F000608100F0E9F8EE20FFF70EFDFFF7B0FC8A
:10140000BC20FFF709FDFFF7ABFC00F0DDF8EF2093
:10141000FFF702FDFFF7A4FCFFF7B8FD0546FFF755
:10142000E5FC00F0EDF800F0CFF8EE20FFF7F4FC5B
:10143000FFF796FCBD20FFF7EFFCFFF791FC00F0F3
:10144000C3F8EF20FFF7E8FCFFF78AFCFFF79EFDEB
:10145000C6B2FFF7CBFC00F0D3F806EB0520A08165
:1014600000F0B2F8EE20FFF7D7FCFFF779FCBE20C2
:10147000FFF7D2FC02E0000000000020FFF770FC44
:1014800000F0A2F8EF20FFF7C7FCFFF769FCFFF7B9
:101490007DFD0546FFF7AAFC00F0B2F800F094F8D5
:1014A000EE20FFF7B9FCFFF75BFCBF20FFF7B4FCB1
:1014B000FFF756FC00F088F8EF20FFF7ADFCFFF7D0
:1014C0004FFCFFF763FDC6B2FFF790FC00F098F801
:1014D00006EB0520E08170BD70B500F075F8EE20D8
:1014E000FFF79AFCFFF73CFCF420FFF795FCFFF7B1
:1014F00037FC2E20FFF790FCFFF732FC00F080F85D
:101500000520FEF78DFE00F05FF8EE20FFF784FC6B
:10151000FFF726FCF620FFF77FFCFFF721FC00F029
:1015200053F8EF20FFF778FCFFF71AFCFFF72EFDCA
:10153000C5B2FFF745FCFFF729FDC4B2FFF756FC23
:1015400000F05EF80F4904EB052088628A8A801A51
:101550004A8A5043C21700EB5240C0138861B1F968
:101560000C20B1F90E30D202034492FBF3F2104486
:10157000C1E907200830C21700EB12700011486261
:1015800070BD00000000002088B0FEF753FFFFF799
:1015900073FAFFF743FAFFF73BFDFFF7E5FC00BFE7
:1015A000FFF79AFF024606A16846FFF789FA002175
:1015B0000220FFF76EFC6846FFF77FFCF0E70000B3
:1015C000543D256C6420000010B50C4C4FF4806035
:1015D00020600120FEF724FEE01420600120FEF7C9
:1015E0001FFEA00520600120FEF71AFEE005206026
:1015F000BDE810400120FEF713BE000010080140B6
:1016000010B50C4C4FF0806020600120FEF708FE02
:10161000E00520600120FEF703FEE01420600120B9
:10162000FEF7FEFD20152060BDE810400120FEF70A
:10163000F7BD00001008014000000000000000009D
:1016400001020304060708096816000800000020CC
:1016500060000000080B0008C816000860000020A9
:1016600000040000180B000800000000000000004B
:10167000000000000000000000000000000000006A
:10168000000000000000000000000000000000005A
:10169000000000000000000000000000000000004A
:1016A000000000000000000000000000000000003A
:1016B0000000000000000000010000001000000019
:0816C000000000000024F4000A
:04000005080000ED02
:00000001FF
