:020000040800F2
:1000000030050020010100082F1F0008711D0008A5
:100010002D1F0008A50900081D2100080000000090
:10002000000000000000000000000000331F000876
:10003000A709000800000000311F0008351F000854
:100040001B0100081B0100081B0100081B01000820
:100050001B0100081B0100081B0100081B01000810
:100060001B0100081B0100081B0100081B01000800
:100070001B0100081B0100081B0100081B010008F0
:100080001B0100081B0100081B0100081B010008E0
:100090001B0100081B0100081B0100081B010008D0
:1000A0001B010008911F00081B0100081B0100082C
:1000B0001B0100081B010008000000001B010008D4
:1000C0001B01000800000000000000001B010008E8
:1000D000000000001B0100081B01000800000000D8
:1000E000A90900081B0100081B010008DFF80CD05B
:1000F00000F096FB00480047CD3100083005002095
:100100000648804706480047FEE7FEE7FEE7FEE7B1
:10011000FEE7FEE7FEE7FEE7FEE7FEE78D1F0008CD
:10012000ED000008202A04DB203A21FA02F0002129
:10013000704721FA02F3D040C2F1200291400843F7
:1001400019467047D2B201E000F8012B491EFBD2DC
:1001500070470022F6E710B513460A4604461946D2
:10016000FFF7F0FF204610BD421C10F8011B0029CC
:10017000FBD1801A7047F0B480EA0102D40F42002C
:10018000B2EB410F02D20246084611464A0042D065
:10019000C30DDDB2C1F3C752AD1A202D35DAC1F35C
:1001A000160141F4000204B15242C5F1200602FAE0
:1001B00006F12A411044B3EBD05F23D0C4B1012D26
:1001C000A0EBC35009DCF0BC4FF0004202EAC3527E
:1001D000DBB200F5000000F069BA400000F1807069
:1001E00000EBC350A0F1807040EAD170490009E0F3
:1001F000490841EAC071A0EBC35000F50000400877
:1002000000EBC350F0BC00F048BA6142012202EB9F
:100210004101001BF6E7F0BC704781F00041AAE7FE
:1002200080F00040A7E72DE9FE4F804681EA0300F9
:10023000C00F0C46009021F0004123F00045B8EBC0
:100240000200A94105D24046214690461C460B4675
:10025000024623F00040104347D0270DC7F30A00A1
:10026000C3F30A510290401A019040286BDAC3F39D
:10027000130040F4801B0098924620B10023D2EB7B
:10028000030A63EB0B0B01985946C0F1400250463C
:1002900000F0E2F906460D4650465946019A00F034
:1002A000EAF910EB08006141002487EA115284EA60
:1002B000E7731A4340D0009A62B3019A012A4FEAC9
:1002C000075215DC001B61EB02014FF0004202EA0D
:1002D0000752CDE90042001C41F5801132462B4601
:1002E00000F021FA03B0BDE8F08F40462146F9E75F
:1002F000001B61EB0201001C41F5801300185B41FB
:100300002018A2F5001747EB030140EAD570B61993
:100310006D4111E06D084FEA360645EAC0754FEAB7
:100320000752001B61EB0201001C41F580114908D6
:100330004FEA30000019514132462B4603B0BDE868
:10034000F04F00F0E1B90098012240000023D0EB0B
:10035000020263EBE073009821464FEAE074B8EBC9
:10036000000061EB0401E9E783F000435BE781F003
:10037000004158E72DE9FE4F81EA030404F00044F0
:1003800021F0004100944FF0000B23F0004350EAAD
:1003900001045ED052EA03045BD0C3F30A54C1F3F4
:1003A0000A552C44A4F2F3340194A0FB0254C1F387
:1003B000130141F48011C3F3130343F4801301FBD1
:1003C000024400FB034E840A970A44EA815447EA38
:1003D0008357A4FB076802958D0A05FB07854FEA42
:1003E000932C04FB0C542705029D4FEA065847EA5C
:1003F0001637B5EB08056EEB070C870E920E47EA31
:10040000811742EA8312A7FB0201B6EB0B0164EBF2
:1004100000042B0D43EA0C335E1844EB1C50DA4603
:100420005146E7FB0201C5F313044FEA0B3343EADD
:1004300014534FEA0432019C43EA0603A4F10C046E
:100440000294009CCDE900B400F06DF903B0BDE862
:10045000F08F00200146F9E72DE9F04D81EA030411
:1004600004F0004B21F0004514464FF0000A23F041
:10047000004150EA050220D054EA01021DD0C5F324
:100480000A570246C5F31303C1F31300C1F30A561A
:1004900040F4801543F48013A7EB0608101BD646E2
:1004A00008F2FD3873EB050002D308F1010801E002
:1004B00092185B41B8F1000F03DA00200146BDE855
:1004C000F08D00204FF48011064684460EE0171B85
:1004D00073EB050705D3121B63EB050306434CEAD8
:1004E000010C49084FEA300092185B4150EA0107BD
:1004F000EDD152EA030012D082EA040083EA05013A
:10050000084305D0101BAB4106D20122002306E0B0
:1005100000224FF0004302E06FF0010253101AEB8B
:1005200006004CEB085110EB0A0041EB0B01BDE853
:10053000F04D00F0E9B8C10F80EAE0700844CA0746
:100540009623002100F0B2B80EB5C10F80EAE0702A
:100550000844CA07002140F233438DE80E000A46E2
:100560000B4600F0E0F803B000BD0EB540F2334199
:1005700002910021CDE900110A460B4600F0D3F8A4
:1005800003B000BD00F0004220F00040C10DC0F3F8
:10059000160040F400007F2901DA002070479629F8
:1005A00003DCC1F19601C84001E096398840002A79
:1005B000F4D04042704770B5C1F30A5201F00045D3
:1005C0000024C1F3130140F2FF3341F480119A4239
:1005D00001DA002070BD40F233439A42A2F2334266
:1005E00003DC5242FFF79EFD00E090402C43F1D027
:1005F000404270BD01F0004330B421F0004150EAA8
:10060000010206D00A0DA2F56072C1F31301002A9F
:1006100002DC30BC00207047440F44EAC104C10032
:10062000E01830BC00EBC25000F037B830B50B46D4
:10063000014600202022012409E021FA02F59D4212
:1006400005D303FA02F5491B04FA02F52844151EE6
:10065000A2F10102F1DC30BD202A04DB203A00FACD
:1006600002F1002070479140C2F1200320FA03F309
:10067000194390407047202A06DBCB17203A41FAF5
:1006800002F043EAE07306E041FA02F3D040C2F11F
:10069000200291400843194670470029A8BF7047BF
:1006A000401C490008BF20F00100704710B4B0FAA8
:1006B00080FC00FA0CF050EA010404BF10BC704743
:1006C00049B1CCF1200421FA04F411FA0CF118BF5D
:1006D000012121430843A3EB0C01CB1D4FEA00612C
:1006E0004FEA102042BF002010BC704700EBC350FF
:1006F00010440029A4BF10BC7047401C490008BF2B
:1007000020F0010010BC704710B5141E73F10004F6
:1007100008DA401C41F1000192185B411A4301D1F3
:1007200020F0010010BD2DE9F04D92469B4611B11D
:10073000B1FA81F202E0B0FA80F220329046FFF77F
:100740008BFF04460F4640EA0A0041EA0B0153467C
:100750005A46084313D0114653EA010019D0C8F194
:1007600040025046FFF7DEFC05460E46504659460D
:100770004246FFF771FF084305D0012004E0204600
:100780003946BDE8F08D0020054346EAE0762C436B
:1007900037430A986305E40AA0EB08000022FD0A2B
:1007A00044EA47540A3002D500200146E9E7010532
:1007B00010196941DDE9084500196941BDE8F04DAE
:1007C000A2E770B521F0004303430CD0C1F30A55F2
:1007D0000024D5EB040564EB0403D617AD1AB3412E
:1007E00002DB0020014670BD201841EB025170BDB4
:1007F00030B5041E71F1000404DB4FF000444042A8
:1008000064EB0101141E73F1000405DB1C464FF07C
:100810000043524263EB0403994208BF904230BD4B
:10082000064C074D06E0E06840F0010394E807003D
:1008300098471034AC42F6D3FFF75CFC603F0008E9
:10084000803F00082DE9F04D00231A461B1A8A410B
:1008500003DB00200146BDE8F08DC1F30A52C1F36D
:10086000130141F480154FF0000BD10702D100189D
:100870006D41521E0027044640F2FF11384601EB3D
:10088000620A3E468046024600204FF48011FFF780
:1008900049FCC2197141BB1846EB0100B4EB030CD3
:1008A00075EB000C04D3E41A65EB000517460E4601
:1008B000241908F101006D4180463428E3DDF9195F
:1008C00046EB0600091BA84103D24FF0FF32134646
:1008D00001E0002213461BEB070046EB0A51BDE87E
:1008E000F04DFFF711BF000070B504460068816845
:1008F000C943C9071CD1816821F00101816000F062
:10090000CBFB05460FE000BF00F0C6FB401B0228F2
:1009100009D9A06A40F01000A062E06A40F001002E
:10092000E062012070BD20688068C043C007EBD042
:10093000002070BDF8B50026044600960068816866
:10094000C943C90728D0816841F00101816013487B
:1009500013490068B0FBF1F000E0401E0090002851
:10096000FBD100F099FB054611E000BF00F094FBBD
:10097000401B02280BD9A06A40F01000A062E06A78
:1009800040F00100E06284F824600120F8BD206896
:100990008068C043C007E9D10020F8BD6C0000208A
:1009A00040420F00FEE7704710B54FF4805000F052
:1009B0007DFABDE810404FF4004000F077BA704770
:1009C000F8B50024009490F824202546012A12D07E
:1009D000012280F824204A681F23072A0DD20668C6
:1009E000776B521E02EB820293409F430B68934049
:1009F0001F43776319E00220F8BD06680D2A0AD26A
:100A0000376BD21F02EB820293409F430B689340E7
:100A10001F43376309E0F76A0D3A02EB8202934005
:100A20009F430B6893401F43F7620A6807230668D9
:100A30000A2A0AD3F7680A3A02EB420293409F431C
:100A40008B6893401F43F76008E0376902EB42026E
:100A500093409F438B6893401F4337610A68102A75
:100A600001D0112A20D1124B02689A4217D1936803
:100A70001B0219D4936843F400039360096810299A
:100A800012D10C490C4A0968B1FBF2F101EB81016A
:100A9000490000E0491E00910029FBD104E0816A71
:100AA00041F020018162012480F824502046F8BDE5
:100AB000002401406C00002040420F000068C06C20
:100AC000704700002DE9F0414FF0000704003D465B
:100AD0007ED0A06A002628B9E66284F82460204609
:100AE00000F07EF82046FFF7FFFEA16AC90600D499
:100AF00020B1A06A40F01000A06269E0A16A21F470
:100B0000885141F00201A1626268E169237B0A43D6
:100B100047EA43010A43A1684FF48077B94209D0FC
:100B2000012907D05FF0000194F814C0BCF1010F57
:100B300002D00AE03946F7E7F3B1A36A43F0200395
:100B4000A362E36A43F00103E3622368D3F804C0BD
:100B50002CF4694C4CEA010CC3F804C021688B6882
:100B6000DFF870C003EA0C0313438B60A168B9423D
:100B70000BD0012909D00CE0DFF85CC0A3690CEBB5
:100B800043330B4343F40061DFE7218A0D05A5F5EC
:100B900080152168CB6A23F470032B43CB62216854
:100BA00089680E4B1940914208D1E662A16A21F092
:100BB000020141F00101A162BDE8F081A06A20F0CC
:100BC000020040F01000A062E06A40F00100E06224
:100BD0000120F1E7FDF7E1FF00E0FFFFFE0E1FFF40
:100BE00000B585B000210091019102910391006848
:100BF0000E49884218D10E48816941F40071816123
:100C0000816901F400710491816941F008018161F9
:100C10008069694600F008000490012000900320DC
:100C20000190044800F04EF905B000BD00240140D9
:100C300000100240000C01402DE9F84300260D464B
:100C40000446009600F028FA804620688168C905AD
:100C500008D5A06A40F02000A06284F8246001203A
:100C6000BDE8F8834168C90503D4C06A10F4700F69
:100C700026D0022000F0AEFA38490968B1FBF0F73F
:100C80002068036936490B424FEA61014FEAA1121D
:100C90001BD1C3684FEA611C13EA0C0F15D103691D
:100CA0000B4221D1C06810421ED114201FE0681CE5
:100CB00006D045B300F0F0F9A0EB0800A84222D816
:100CC000206800688007F2D52AE003690B4202D150
:100CD000C168114206D0026922490A4206D1C068A1
:100CE000084203D1542002E0292000E0FC204743C1
:100CF000009813E0681C0ED02DB100F0CDF9A0EBE8
:100D00000800A84207D9A06A40F00400A06284F855
:100D100024600320A4E70098401C0090B842E9D367
:100D200021686FF012000860A06A40F40070A062B1
:100D300020688068C0F3424007280CD1207B50B95E
:100D4000A06A20F48070A062A06AC00403D4A06AE4
:100D500040F00100A062002082E700006C0000204B
:100D6000244992244992240070B5044690F8240046
:100D700001280DD0012084F824002046FFF7DAFD79
:100D800002004FF0000005D084F82400104670BD2A
:100D9000022070BDA16A40F20123994341F48071A1
:100DA000A1621F4D23681F49AB4218D10E6816F48B
:100DB000702F14D0A66A46F48016A6620E687605D7
:100DC00005D5A66A26F4005646F48056A662A66AA1
:100DD000F6040AD5E66A26F00606E66206E0A66A8A
:100DE00026F48016A6625E68E9E7E06284F82400D3
:100DF0006FF00200186020688368C3F34243072B3A
:100E000005D1A84208D1096811F4702F04D0816877
:100E100041F480118160B9E7816841F4A001F9E7EC
:100E2000002801400424014010B5044690F8240035
:100E3000012807D0012084F824002046FFF754FD44
:100E400010B107E0022010BDA16A21F4885141F0E1
:100E50000101A162002184F8241010BD70B5044680
:100E600000F01AF90546601C02D0044800780444DA
:100E700000F012F9401BA042FAD370BD60000020C0
:100E800010B5094CB0F5805F07D0B0F5004F03D125
:100E9000A069E0610020A06110BD4FF07E51E06AC2
:100EA000FFF769F9E06210BD00000020044910B5A9
:100EB0000A68024202D00860FFF7E2FF10BD00009E
:100EC000140401402DE9F84FDFF89C91002409F14A
:100ED000040A0AF1040B23460F270BF1040EBBE0B2
:100EE0000125A5402A40AA4276D1DFF880C14E688C
:100EF000A6EB0C0866452BD00DDC032E34D005DCA8
:100F000036B3012E19D0022E2FD11BE0112E16D090
:100F1000122E2AD119E0B8F5881F19D006DCB8F5D1
:100F2000803F15D0B8F5801F1FD111E0B8F5001F24
:100F30000ED0B8F5041F18D10AE0CB6815E0CB68D5
:100F40001B1D12E0CB6808330FE0CB680C330CE0BC
:100F50008B682BB1012B4FF0080303D0456104E0EF
:100F6000042302E0056100E00023FF2A01D80646C1
:100F700001E000F104064FEA840501D9A5F120053E
:100F8000D6F8008007FA05FC28EA0C0803FA05F5F4
:100F900048EA0508C6F800804D68ED005BD5344D81
:100FA000AE6946F00106AE61AD6924F0030605F0B6
:100FB000010500952F4D06EB050CDCF80850A6073F
:100FC000360F07FA06F825EA0805DFF8AC80404539
:100FD00003D14FF0000810E03DE0DFF8A08040456D
:100FE00002D14FF0010808E0DFF89480404502D1BB
:100FF0004FF0020801E04FF0030808FA06F848EA4B
:101000000508CCF808804D68D9F80060ED034D461E
:1010100001D5164300E096432E604D68DAF8006073
:10102000AD03554601D5164300E096432E604D684A
:10103000DBF80060ED025D4601D5164300E0964303
:101040002E604D68DEF80060AD02754601D516438E
:1010500000E096432E60641C0A6832FA04F57FF4BF
:101060003FAFBDE8F88F0000000401400000111000
:10107000001002400000014000080140000C014047
:10108000001001408068084000D0012070470AB17C
:10109000016170470904FBE7014880687047000060
:1010A0006000002002488168027811448160704726
:1010B00060000020074810B5016841F01001016090
:1010C000032000F075F8002000F006F800F024F886
:1010D000002010BD0020024070B50D4D04464FF4B5
:1010E0007A712878B1FBF0F00A490968B1FBF0F099
:1010F00000F0C6FB48B9102C07D200222146501E32
:1011000000F036F800206C6070BD012070BD00005A
:10111000600000206C0000200C4808B5816941F097
:1011200001018161816901F001010091C16941F012
:101130008051C161C06900F080500090044841684E
:1011400021F0E06141F08061416008BD0010024083
:1011500000000140002809DB00F01F02012191403E
:101160004009800000F1E020C0F800117047000045
:10117000F0B40E4B1B680C46C3F30223C3F1070502
:10118000042D00D90425191D072901D2002300E0F0
:10119000DB1E012606FA05F1491E214099409E40BA
:1011A000761E16403143F0BC00F0E2BF0CED00E0CB
:1011B000064900F0070208684FF6FF03184040EAAE
:1011C0000220034A10430860704700000CED00E065
:1011D0000000FA0510B529A401461DCC86B08DE8A3
:1011E0001D002AA02A4C006804900020012923D069
:1011F00002293AD010291DD161682268D20119D57F
:10120000C1F38342C9031DF8020009D5616804AA2D
:10121000C1F34041515C1F4AB2FBF1F1484301E088
:101220001D4948436168490204D440005FF003014E
:10123000B0FBF1F006B010BD226AC2F30121012912
:1012400003D1920701D5C803F4E7022905D1626AE8
:10125000920702D549F64040ECE70329EAD121681C
:101260008903E7D54FF22440E4E700F033F96168E1
:10127000C1F38131491C4900DAE70000020304058B
:10128000060708090A0B0C0D0E0F101001020000D2
:101290000010024000127A0000093D002DE9F843D9
:1012A00005460078354CC00754D0E0690026C000E0
:1012B00008D4E06940F08050E061E069012600F068
:1012C000805000902E480168C90512D401688046FC
:1012D00041F480710160FFF7DFFE074605E000BFC3
:1012E000FFF7DAFEC01B642823D8D8F80000C00539
:1012F000F6D5206A10F4407021D0A98801F440711D
:1013000081421CD0206A1F49012220F440700A60EB
:1013100000220A602062C00711D0FFF7BDFE074619
:1013200041F2883808E000BFFFF7B6FEC11B414517
:1013300002D90320BDE8F883206A8007F4D5206A2B
:10134000696820F44070084320621EB1E06920F013
:101350008050E0612878800705D56068A96820F48E
:101360004040084360602878C00605D56068E96899
:1013700020F48000084360600020DBE7001002409A
:1013800000700040400442422DE9F0470F4605003E
:1013900061D0434E306800F00700B84209D230688F
:1013A00020F0070038433060306800F00700B84292
:1013B00051D128683B4C810712D5400703D560689E
:1013C00040F4E06060602878000703D5606840F46E
:1013D000605060606068A96820F0F00008436060B9
:1013E0002878C00728D06868012810D02168022812
:1013F00010D0890700292EDA616821F0030101432A
:101400006160FFF749FE804641F288390DE02168AE
:101410008903EFE78901EDE7FFF73EFEA0EB080146
:10142000494502D90320BDE8F0876068696800F08B
:101430000C00B0EB810FEFD1306800F00700B8422C
:101440000BD9306820F0070038433060306800F076
:101450000700B84201D00120E5E72878400705D50C
:101460006068E96820F4E06008436060287800075D
:1014700006D56068296920F4605040EAC1006060C8
:1014800000F038F86168084AC1F30311515CC840A4
:101490000649086006480068FFF71EFE0020C2E704
:1014A0000020024000100240B83E00086C000020FE
:1014B000640000200448054900684968044AC1F3F3
:1014C0000221515CC84070476C00002000100240AF
:1014D000C83E00080448054900684968044AC1F349
:1014E000C221515CC84070476C00002000100240CF
:1014F000C83E000812A185B00FC98DE80F0014A0E6
:10150000144A006804905168134801F00C03042B3E
:1015100010D0082B0ED1C1F38343C9031DF803007B
:101520000AD5516804AAC1F34041515C0A4A5043AC
:10153000B0FBF1F005B0704708494843FAE70000F6
:1015400002030405060708090A0B0C0D0E0F101004
:10155000010200000010024000127A0000093D0064
:101560002DE9F84F040070D02078C04DC00749D055
:101570006868C0F38100012807D06868C0F3810063
:10158000022809D16868C00306D52868800339D5C8
:1015900060680028E7D035E06068B0F5803F0BD088
:1015A00010B1B0F5A02F11D0286820F48030286049
:1015B000286820F4802002E0286840F48030286009
:1015C000606890B1FFF768FD06460AE0286840F4BD
:1015D00080202860F0E700BFFFF75EFD801B6428D5
:1015E00073D828688003F7D50CE0FFF755FD064651
:1015F00005E000BFFFF750FD801B6428F0D8286885
:101600008003F7D420789A4E80074FF001094FF0FD
:10161000000839D5686810F00C0F07D06868C0F36F
:101620008100022809D16868C00306D428688007B1
:1016300014D52069012808D110E02069B0B1C6F89E
:101640000090FFF729FD074605E00AE1FFF724FDBA
:10165000C01B0228C4D828688007F7D528686169AC
:1016600020F0F80040EAC10028600DE0C6F80080D4
:10167000FFF712FD074604E0FFF70EFDC01B02282E
:1016800023D828688007F7D4207800072CD579481C
:10169000A169D9B1C0F80090FFF7FEFC074604E04D
:1016A000FFF7FAFCC01B02280FD8686A8007F7D53D
:1016B00071484FF4FA510068B0FBF1F0009000BFA0
:1016C0000098411E0091FAD20EE080E0C0F8008040
:1016D000FFF7E2FC074604E0FFF7DEFCC01B022830
:1016E00075D8686A8007F7D42078400760D5E86924
:1016F0000027C00008D4E86940F08050E861E8693C
:10170000012700F0805000905C480168C90513D49F
:101710000168834641F480710160FFF7BDFC824699
:1017200006E000BFFFF7B8FCA0EB0A0064284ED823
:10173000DBF80000C005F5D5E06801280AD008B143
:10174000052813D0286A20F001002862286A20F0BA
:10175000040002E0286A40F001002862E06841F2DB
:10176000883B98B1FFF798FC82460BE0286A40F06E
:1017700004002862EEE700BFFFF78EFCA0EB0A0131
:1017800059455AD8286A8007F6D50CE0FFF784FC43
:10179000824605E0FFF780FCA0EB0A0159454CD8D2
:1017A000286A8007F6D41FB1E86920F08050E8610C
:1017B000E06988B36968C1F38101022944D0022835
:1017C000C6F8608004D0FFF767FC044638E034E0D8
:1017D000FFF762FC074604E0FFF75EFCC01B02282F
:1017E0002BD828688001F7D4206AB0F5803F05D156
:1017F0006868A16820F4003008436860D4E90801F3
:101800000843696821F4741108436860C6F8609061
:10181000FFF742FC044606E025E000BFFFF73CFC72
:10182000001B022809D828688001F7D51BE000BFFB
:10183000FFF732FC001B022802D90320BDE8F88F15
:1018400028688001F4D40EE00128F7D06868226A85
:1018500000F48031914204D1616A00F47010884232
:1018600001D00120EAE70020E8E700000010024074
:1018700000004242800442426C00002000700040A0
:1018800010B5401EB0F1807F01D3012010BD4FF094
:10189000E02460610F21601700F06AFC0020A06165
:1018A00007202061002010BD7047704770B590F888
:1018B0003C20012A23D0012480F83C40022280F8F9
:1018C0003D2003685A689D6822F070060A6832431A
:1018D0005A600C4B02689A4205D0B2F1804F02D098
:1018E000094B9A4204D1496825F08003194391605D
:1018F00080F83D40002180F83C10084670BD022071
:1019000070BD0000002C01400004004010B5040030
:1019100003D094F83D0010B107E0012010BD002075
:1019200084F83C00204600F01FF8022084F83D00B7
:10193000211D206800F032FB012084F8460084F865
:101940003E0084F83F0084F8400084F8410084F8A9
:10195000420084F8430084F8440084F8450084F889
:101960003D00002010BD000008B500680B4988420A
:1019700012D10B48816941F40061816180690022C4
:1019800000F40060009011461920FFF7F1FBBDE85C
:1019900008401920FFF7DEBB08BD0000002C014005
:1019A0000010024090F83D10012901D0012070473D
:1019B000022180F83D100168CA6842F00102CA6045
:1019C00000680A49884205D0B0F1804F02D008492A
:1019D000884204D1816801F00701062903D001681B
:1019E00041F001010160002070470000002C01401F
:1019F0000004004070B5044690F83C00012817D060
:101A0000012584F83C50022084F83D00206882685B
:101A100022F0770222F47F4282600868502830D09A
:101A20000DDC20284DD005DC98B310283BD148E0D0
:101A3000022070BD302844D0402834D139E06028DD
:101A400028D0702806D0B0F5805F2CD0B0F5005FAC
:101A500029D10AE0CB68D1E90121206800F0CCFA55
:101A60002068816841F0770109E0CB68D1E9012164
:101A7000206800F0C1FA2068816841F480418160EB
:101A800011E0CA684968206800F0C8FA502120684F
:101A900007E016E0CA684968206800F0D0FA6021C3
:101AA000206800F0B3FA84F83D50002084F83C0030
:101AB00070BDCA684968206800F0B0FA402120680B
:101AC000EFE7226801461046EBE7704770B5044621
:101AD000006801694FF00005C943890715D4C16842
:101AE000C943890711D4E91E0161012020772068CC
:101AF00080698007204602D0FFF7E7FF04E000F08E
:101B000098F8204600F096F8257720680169C943C7
:101B1000490717D4C168C943490713D46FF00401BA
:101B20000161022020772068806910F4407F204600
:101B300002D0FFF7CAFF04E000F07BF8204600F077
:101B400079F8257720680169C943090716D4C16867
:101B5000C943090712D46FF00801016104202077FE
:101B60002068C0698007204602D0FFF7AEFF04E07E
:101B700000F05FF8204600F05DF8257720680169E5
:101B8000C943C90617D4C168C943C90613D46FF045
:101B900010010161082020772068C06910F4407F9F
:101BA000204602D0FFF791FF04E000F042F8204603
:101BB00000F040F8257720680169C943C90708D1BA
:101BC000C168C943C90704D1891E0161204600F0DC
:101BD00033F820680169C943090609D4C168C943BB
:101BE000090605D46FF0800101612046FFF75CFE15
:101BF00020680169C943490609D4C168C943490637
:101C000005D46FF040010161204600F03FF82068E4
:101C10000169C94389060BD4C168C943890607D441
:101C20006FF0200101612046BDE87040FFF73DBE26
:101C300070BD70477047000070B5124C124E4FF4E3
:101C40000055206A401C2062A169491CA161A16A5B
:101C500019B1884203D8012202E000220AE00022E2
:101C600029463046FFF713FA206A642808D300207B
:101C70000122206229463046BDE87040FFF707BACE
:101C800070BD000000000020000C0140704770B5DE
:101C9000040004D094F83900002510B106E00120BA
:101CA00070BD84F83850204600F022F8242084F8D3
:101CB00039002068C16821F40051C160204600F05D
:101CC000D1F92068016921F49041016120684169DE
:101CD00021F02A0141612068C16841F40051C160CE
:101CE000E563202084F8390084F83A00002070BDB4
:101CF00030B585B0002400940194029403940068E8
:101D0000174988422AD11748816941F4804181618D
:101D1000816901F480410491816941F00801816188
:101D20008069114D00F008000490402000900220CE
:101D300001900320039069462846FFF7C3F88020EE
:101D4000CDE90004694628460294FFF7BBF807482E
:101D5000416841F0E06141F00401416005B030BDEF
:101D60000038014000100240000C0140000001401A
:101D7000FEE700003EB500211148009101910F4A95
:101D80000291026081600173017501244FF46022A9
:101D90000461C2614160FEF795FE08B1FEF70FFED7
:101DA0000820CDE900040620029069460448FEF7A9
:101DB00007FE002801D0FEF702FE3EBD00240140D0
:101DC000740000202DE9F04385B000242A480094D7
:101DD000019402940394816941F004018161816955
:101DE00001F004010491816941F008018161806979
:101DF000DFF8888000F0080040F6FF7504900022AC
:101E000029464046FFF743F9DFF8749046F20E0783
:101E1000002239464846FFF73AF900950226012587
:101E20000396CDE9015469464046FFF74BF8009709
:101E30000396CDE9015469464846FFF743F8280365
:101E400000901048CDE9010469464846FFF73AF88A
:101E5000E80300900C48CDE9010469464846FFF7C5
:101E600031F8002211462820FFF782F92820FFF7D9
:101E700071F905B0BDE8F083001002400008014090
:101E8000000C0140000021100000111010B586B0B8
:101E90000024174800940194029403940494134975
:101EA000059401604FF44871C0E901140121C0E9B3
:101EB000031444618461FFF729FD08B1FEF77FFD3B
:101EC0004FF48050009069460948FFF793FD08B130
:101ED000FEF775FD049404A905480594FFF7E6FC98
:101EE000002801D0FEF76BFD06B010BD002C0140AC
:101EF000A40000200C4810B50A4901604FF41651A7
:101F00004160002181600C22C160C0E9041281613E
:101F1000C161FFF7BCFE002803D0BDE81040FEF70A
:101F20004EBD10BD00380140EC000020FEE77047B8
:101F300070477047FFF7B6B830B593B028216846B0
:101F4000FEF707F914210AA8FEF703F9002401207F
:101F50000F94022504900095102011940590109480
:101F6000129407946846FFF7FBFA0F20CDE90A04A4
:101F70000C940D9400210AA80E94FFF705FA0FA8FF
:101F80000F951194FFF78AF913B030BD7047000028
:101F90000148FFF79BBD0000A400002070B5026857
:101FA000134B144C4FF08046984203D0B04201D0FE
:101FB000A04203D122F070054A682A43984203D018
:101FC000B04201D0A04203D122F44074CA68224337
:101FD0004C6922F08002224302608A68C2620A6869
:101FE0008262984201D1096901630121416170BD9A
:101FF000002C01400004004010B5846842EA03222E
:1020000024F47F440A432243826010BD826822F098
:1020100070020A4342F007018160704710B5036AFD
:10202000046A24F001040462846924F0F00444EAA0
:10203000021423F00A020A438461026210BD10B543
:10204000036A23F0100303628369046A23F4704374
:1020500043EA023224F0A00343EA011182610162E3
:1020600010BD000070B5044600680169E26821F403
:102070004051114301612169A06808436169084327
:102080002168CA6841F20C639A430243CA6020681F
:102090004169A26921F44071114341611E492068E0
:1020A000884202D1FFF716FA01E0FFF703FA00EBCE
:1020B000C00101EB0012606864218000B2FBF0F304
:1020C000B3FBF1F36FF018067343B2FBF0F5B2FB0C
:1020D000F0F605EB8305322303EB0515B5FBF1F5AF
:1020E000B6FBF1F605F0F00505EB0615B2FBF0F6D0
:1020F000B2FBF0F0B0FBF1F06FF01802504306EBCA
:10210000800003EB0010B0FBF1F0216800F00F003D
:102110002844886070BD000000380140FEE70000E0
:102120000FB4084B10B504A902AA039800F0BCF83C
:10213000044602A9002000F058FA204610BC5DF8C1
:1021400014FB0000EB250008490050EAC12018BF2D
:1021500004204A0D18BF40F0010040F2FF72B2EBBC
:10216000515F08BF40F00200012808BF05207047FA
:102170000907090E002804DB00F1E02080F80014B4
:10218000704700F00F0000F1E02080F8141D704748
:102190002DE9F0414F1E00EBC7010446D1E90001D3
:1021A00015461E4637F006020DD02A463346FEF786
:1021B000E1F87F1E04EBC703D3E90023FEF733F8F1
:1021C00037F00602F1D1022F25D0042F13D0062FAD
:1021D00018BFBDE8F0812A463346FEF7CBF8D4E9B4
:1021E0000A23FEF720F82A463346FEF7C3F8D4E95F
:1021F0000823FEF718F82A463346FEF7BBF8D4E961
:102200000623FEF710F82A463346FEF7B3F8D4E962
:102210000423FEF708F82A463346FEF7ABF8D4E964
:102220000223FEF700F82A463346FEF7A3F8D4E966
:102230000023BDE8F041FDF7F6BF00000022134681
:1022400010460149FEF708B90000F03FFDF7EBBF6B
:102250000022134610461146FEF7FEB840F2013246
:1022600000204FF0E041FEF7ACBA0000024A002027
:102270001107FEF7A6BA000001FDFFFF02E008C843
:10228000121F08C1002AFAD170477047002001E0F0
:1022900001C1121F002AFBD17047000001490860EC
:1022A00070470000700000202DE9FF4F8BB088467A
:1022B0000546002606E025280BD0DDE90D129047E3
:1022C0006D1C761C28780028F5D10FB03046BDE88B
:1022D000F08F0024A146A2460122AE4900E004434B
:1022E00015F8013F203B02FA03F00842F7D12878A5
:1022F0002A2810D06FF02F022878A0F13001092988
:1023000015D809EB890102EB410144F0020400EB0E
:1023100001096D1CF0E758F8041B5FEA010903D5B9
:1023200044F40054C9F1000944F002046D1C2878FB
:102330002E2817D115F8010F44F004042A280ED0D6
:102340006FF02F022878A0F1300109290AD80AEB92
:102350008A0102EB410100EB010A6D1CF2E758F81B
:1023600004AB6D1C28786C280FD006DC4C2817D0E5
:1023700068280DD06A2814D104E0742810D07A2877
:102380000FD10DE044F400140AE044F4801401E09D
:1023900044F440146978814202D104F580146D1C24
:1023A0006D1C2878692865D006DC00288DD063284C
:1023B00027D0642806D15DE06E2808D073282AD083
:1023C000752877D0DDE90D129047761CE0E0C4F364
:1023D0000250022809D003280DD0D8F80010042894
:1023E0000DD00E6008F10408D2E0D8F80010F21702
:1023F000C1E90062F6E7D8F800100E80F2E70E702F
:10240000F0E718F8041B8DF8001000208DF801008B
:10241000EB46012003E058F804BB4FF0FF306107A2
:102420004FF0000701D40AE07F1C57450DDA8742C0
:10243000FADB1BF807100029F6D106E07F1C874263
:10244000FCDB1BF807100029F8D1DDE90D23A9EB0F
:1024500007008146214600F0B1F83044C61904E077
:10246000DDE90D121BF8010B90477F1EF8D22146C3
:10247000484688E058F8040BC4F302514FF00A0BA9
:10248000032900D100B2042900D140B2002802DAA9
:1024900040422D2102E0210505D52B218DF8241085
:1024A000012104E006E0E10710D02021F6E708AFA3
:1024B000089113E058F8040BC4F302514FF00A0BD3
:1024C000032900D180B2042900D1C0B20021EEE777
:1024D0005946FEF7ABF8303107F8011D0028F7D157
:1024E000ADEB070000F1200B600702D524F4803427
:1024F00001E04FF0010ADA4502DDAAEB0B0000E033
:102500000020824600EB0B0108980144A9EB010072
:102510000A90E00306D4DDE90D2321460A9800F075
:102520004DF806444FF0000908E009A911F8090028
:10253000DDE90D12904709F10109761C08998945DA
:10254000F3DBE0030CD5DDE90D2321460A9800F00A
:1025500035F8064404E0DDE90D1230209047761C82
:10256000BAF10001AAF1010AF5DC05E0DDE90D127E
:1025700017F8010B9047761CBBF10001ABF1010B82
:10258000F4DC0A982146DDE90D2300F005F8064445
:102590006D1C97E6092801002DE9F041044600254D
:1025A0001E461746880404D405E039462020B0476B
:1025B0006D1C641EF9D52846BDE8F0812DE9F04177
:1025C000044600251E469046C80301D5302700E08A
:1025D0002027880404D505E041463846B0476D1CE5
:1025E000641EF9D52846BDE8F0810A68531C0B60CB
:1025F000107070472DE9FF474FF4806501AA002055
:1026000001240226009582E85100DFF844806946E3
:102610004046FEF757FC0E4FE002103738600120AD
:10262000FEF71CFC29464046FEF72CFD8146E006DD
:1026300038600120FEF712FCCDE90054CDE90246D6
:1026400069464046FEF73EFC04B04846BDE8F087C8
:102650000008014010B500F085FCFDF775FF002271
:102660000B4BFDF7F9FE4FF080420A4B00F0DAFE0B
:102670000022094BFDF77BFE0022084BFDF77AFE96
:10268000FDF7B8FFFDF77EFFBDE81040FDF753BF33
:1026900000FA8F403DF1283F0000F03F40A5E540A3
:1026A0002DE9F041032000F051F90446A0F2C27078
:1026B000164D632803D20020A862032023E040F2D5
:1026C000C170134F40F2F37684420BD8642060430C
:1026D000B0FBF6F0A862012208213846FEF7D7FCCD
:1026E0000120686240F6250084420DD36420A4F2E4
:1026F000C174444394FBF6F0A862002208213846D6
:10270000FEF7C5FC02206862BDE8F08100000020F1
:10271000000C014010B50024012000F017F9A0F5CD
:102720005B6164292AD9A0F6E511642901D82D241A
:1027300024E0A0F29721642901D85A241EE0A0F2D7
:10274000D941642901D8872418E0A0F203716429D3
:1027500001D8B42412E0A0F60E41642901D8E12486
:102760000CE0A0F61571642902D84FF4877405E0D7
:10277000A0F69A60642801D840F23B14204610BDB0
:1027800010B5094C4FF0806020600120FEF766FB19
:10279000E01420600120FEF761FBE0052060BDE849
:1027A00010400120FEF75ABB1008014010B5094C3B
:1027B0004FF4806020600120FEF750FBE0142060A1
:1027C0000120FEF74BFBE0052060BDE81040012032
:1027D000FEF744BB1008014010B50446000602D4C1
:1027E000FFF7CEFF01E0FFF7E1FF600602D4FFF73D
:1027F000C7FF01E0FFF7DAFFA00602D4FFF7C0FF32
:1028000001E0FFF7D3FFE00602D4FFF7B9FF01E0D4
:10281000FFF7CCFF200702D4FFF7B2FF01E0FFF77C
:10282000C5FF600702D4FFF7ABFF01E0FFF7BEFF73
:10283000A00702D4FFF7A4FF01E0FFF7B7FFE0070E
:1028400003D0BDE81040FFF7B1BFBDE81040FFF76F
:1028500097BF102910DA48B1012809D0022809D001
:10286000032809D1D431C8B200F016B88031FAE794
:10287000C031F8E79431F6E7704770B5064600249A
:10288000FDF772FC054603E0305D00F029F8641C9A
:10289000AC42F9DD70BD000070B5104D0446002259
:1028A0004FF400712846FEF7F2FB0C49FF2014316B
:1028B0000860081F04608415012221462846FEF79F
:1028C000E6FB0120FEF7CAFA002221462846FEF761
:1028D000DEFBBDE870400120FEF7C0BA00080140F1
:1028E00070B5104D0446012251022846FEF7CFFB79
:1028F0000C49FF2014310860081F04608415012270
:1029000021462846FEF7C3FB0120FEF7A7FA002266
:1029100021462846FEF7BBFBBDE870400120FEF7CC
:102920009DBA00000008014010B53820FFF7B4FF41
:102930000E20FFF7B1FF0620FFF7AEFF0120FFF7E3
:10294000ABFFBDE810406420FEF788BA2DE9F041E6
:102950002F4C0746002202212046FEF798FB00225A
:1029600004212046FEF793FB0A20FEF777FA294858
:10297000FEF7FAF964212748FEF75EF92548FEF7CD
:102980009DF886B22348FEF74FFA01220221204625
:10299000FEF77DFB002204212046FEF778FB0A208B
:1029A000FEF75CFA1B48FEF7DFF964211948FEF7D1
:1029B00043F91848FEF782F885B21648FEF734FA54
:1029C000002202212046FEF762FB0122042120465C
:1029D000FEF75DFB0A20FEF741FA0E48FEF7C4F948
:1029E00064210C48FEF728F90A48FEF767F884B21C
:1029F0000848FEF719FA012F06D0022F06D0032F40
:102A000000D12046BDE8F0813046FBE72846F9E7D3
:102A1000000C0140740000202DE9FF5F00244FF4FA
:102A2000806701AA204601264FF00209009782E83C
:102A30004102DFF8648069464046FEF743FA164FCC
:102A400000254FF4006A10374FF0006BC7F800A064
:102A50000120FEF703FA60064FEA10684FF4806128
:102A60000D48FEF70FFB40EA0804C7F800B001204C
:102A7000FEF7F4F96D1C082DE8DB4FF48060CDE91A
:102A80000006CDE9026969460348FEF71BFA04B067
:102A900060B2BDE8F09F00000008014070B501F091
:102AA000D3F9EE20FFF798FEFFF7A4FDAA20FFF769
:102AB00093FEFFF79FFD01F0C7F9EF20FFF78CFEB3
:102AC000FFF798FDFFF7A8FF0446FFF76FFE01F040
:102AD000D7F901F0B9F9EE20FFF77EFEFFF78AFD86
:102AE000AB20FFF779FEFFF785FD01F0ADF9EF2090
:102AF000FFF772FEFFF77EFDFFF78EFFC5B2FFF70F
:102B000055FE01F0BDF905EB0420FE4C208001F0DC
:102B10009BF9EE20FFF760FEFFF76CFDAC20FFF79E
:102B20005BFEFFF767FD01F08FF9EF20FFF754FE22
:102B3000FFF760FDFFF770FF0546FFF737FE01F076
:102B40009FF901F081F9EE20FFF746FEFFF752FDF5
:102B5000AD20FFF741FEFFF74DFD01F075F9EF20C5
:102B6000FFF73AFEFFF746FDFFF756FFC6B2FFF745
:102B70001DFE01F085F906EB0520608001F064F987
:102B8000EE20FFF729FEFFF735FDAE20FFF724FE0C
:102B9000FFF730FD01F058F9EF20FFF71DFEFFF7BA
:102BA00029FDFFF739FF0546FFF700FE01F068F940
:102BB00001F04AF9EE20FFF70FFEFFF71BFDAF20F3
:102BC000FFF70AFEFFF716FD01F03EF9EF20FFF7D1
:102BD00003FEFFF70FFDFFF71FFFC6B2FFF7E6FD8D
:102BE00001F04EF906EB0520A08001F02DF9EE2052
:102BF000FFF7F2FDFFF7FEFCB020FFF7EDFDFFF75A
:102C0000F9FC01F021F9EF20FFF7E6FDFFF7F2FCF8
:102C1000FFF702FF0546FFF7C9FD01F031F901F0AA
:102C200013F9EE20FFF7D8FDFFF7E4FCB120FFF722
:102C3000D3FDFFF7DFFC01F007F9EF20FFF7CCFD34
:102C4000FFF7D8FCFFF7E8FEC6B2FFF7AFFD01F0D3
:102C500017F906EB0520208201F0F6F8EE20FFF7C9
:102C6000BBFDFFF7C7FCB220FFF7B6FDFFF7C2FCC4
:102C700001F0EAF8EF20FFF7AFFDFFF7BBFCFFF72D
:102C8000CBFE0546FFF792FD01F0FAF801F0DCF803
:102C9000EE20FFF7A1FDFFF7ADFCB320FFF79CFD91
:102CA000FFF7A8FC01F0D0F8EF20FFF795FDFFF744
:102CB000A1FCFFF7B1FEC6B2FFF778FD01F0E0F826
:102CC00006EB0520608201F0BFF8EE20FFF784FDDF
:102CD000FFF790FCB420FFF77FFDFFF78BFC01F0BE
:102CE000B3F8EF20FFF778FDFFF784FCFFF794FEC1
:102CF0000546FFF75BFD01F0C3F801F0A5F8EE20F3
:102D0000FFF76AFDFFF776FCB520FFF765FDFFF7DB
:102D100071FC01F099F8EF20FFF75EFDFFF76AFC08
:102D2000FFF77AFEC6B2FFF741FD01F0A9F806EB06
:102D30000520A08201F088F8EE20FFF74DFDFFF797
:102D400059FCB620FFF748FDFFF754FC01F07CF872
:102D5000EF20FFF741FDFFF74DFCFFF75DFE054655
:102D6000FFF724FD01F08CF801F06EF8EE20FFF77C
:102D700033FDFFF73FFCB720FFF72EFDFFF73AFCCE
:102D800001F062F8EF20FFF727FDFFF733FCFFF7B4
:102D900043FEC6B2FFF70AFD01F072F806EB05200C
:102DA000E08001F051F8EE20FFF716FDFFF722FC5E
:102DB000B820FFF711FDFFF71DFC01F045F8EF20EB
:102DC000FFF70AFDFFF716FCFFF726FE0546FFF7A3
:102DD000EDFC01F055F801F037F8EE20FFF7FCFCB0
:102DE000FFF708FCB920FFF7F7FCFFF703FC01F041
:102DF0002BF8EF20FFF7F0FCFFF7FCFBFFF70CFED2
:102E0000C6B2FFF7D3FC01F03BF806EB05202081AA
:102E100001F01AF8EE20FFF7DFFCFFF7EBFBBA201A
:102E2000FFF7DAFCFFF7E6FB01F00EF8EF20FFF703
:102E3000D3FCFFF7DFFBFFF7EFFD0546FFF7B6FC1E
:102E400001F01EF801F000F8EE20FFF7C5FCFFF7D7
:102E5000D1FBBB20FFF7C0FCFFF7CCFB00F0F4FF79
:102E6000EF20FFF7B9FCFFF7C5FBFFF7D5FDC6B2B2
:102E7000FFF79CFC01F004F806EB0520608100F0F0
:102E8000E3FFEE20FFF7A8FCFFF7B4FBBC20FFF741
:102E9000A3FCFFF7AFFB00F0D7FFEF20FFF79CFC90
:102EA000FFF7A8FBFFF7B8FD0546FFF77FFC00F032
:102EB000E7FF00F0C9FFEE20FFF78EFCFFF79AFB5B
:102EC000BD20FFF789FCFFF795FB00F0BDFFEF2069
:102ED000FFF782FCFFF78EFBFFF79EFDC6B2FFF700
:102EE00065FC00F0CDFF06EB0520A08100F0ACFFF3
:102EF000EE20FFF771FCFFF77DFBBE20FFF76CFCB7
:102F000002E0000000000020FFF774FB00F09CFFCF
:102F1000EF20FFF761FCFFF76DFBFFF77DFD054636
:102F2000FFF744FC00F0ACFF00F08EFFEE20FFF74F
:102F300053FCFFF75FFBBF20FFF74EFCFFF75AFB88
:102F400000F082FFEF20FFF747FCFFF753FBFFF78E
:102F500063FDC6B2FFF72AFC00F092FF06EB0520E6
:102F6000E08170BD70B500F06FFFEE20FFF734FC1C
:102F7000FFF740FBF420FFF72FFCFFF73BFB34206B
:102F8000FFF72AFCFFF736FB00F07AFF0520FDF77C
:102F900065FF00F059FFEE20FFF71EFCFFF72AFB4C
:102FA000F620FFF719FCFFF725FB00F04DFFEF209F
:102FB000FFF712FCFFF71EFBFFF72EFDC4B2FFF771
:102FC000DFFBFFF729FDC5B2FFF7DAFBFFF724FDB2
:102FD000FFF7ECFB00F054FF200400EB0520204439
:102FE000040A38484464828A016CB0F90E30891AA8
:102FF000428A5143CA1701EB5241B0F90C20C91360
:10300000D2020B4492FBF3F211448163A1F57A6181
:103010000A4681644943CB1701EB1351B0F90830DC
:1030200009135943CB1701EB5351CD120563B0F986
:1030300002305343D91703EB5151C912416329445C
:10304000C164B0F9002001EB8202921CD31702EB9D
:10305000937293100365028A01F500414A43E11A15
:103060004CF25033D20B5943C0E91521B1F1004F56
:1030700003D2490091FBF2F102E091FBF2F1490029
:10308000CA1701EB12621212524340F6DE335A4362
:10309000D31702EB134213140B4AC1654A43D417EA
:1030A00002EB14421214C0E90C321A4402F6CF6249
:1030B000D31702EB137201EB2211C165642091FB5F
:1030C000F0F070BD0000002043E3FFFF70B500F09A
:1030D000BBFEEE20FFF780FBFFF78CFAF420FFF732
:1030E0007BFBFFF787FA2E20FFF776FBFFF782FACC
:1030F00000F0C6FE0520FDF7B1FE00F0A5FEEE20B3
:10310000FFF76AFBFFF776FAF620FFF765FBFFF79C
:1031100071FA00F099FEEF20FFF75EFBFFF76AFA05
:10312000FFF77AFCC5B2FFF72BFBFFF775FCC4B2C3
:10313000FFF73CFB00F0A4FE104804EB05210164FE
:10314000828A891A428A5143CA1701EB5241C91334
:103150000163B0F90C20B0F90E30D2020B4492FB9F
:10316000F3F21144C0E90D210831CA1701EB1271C5
:103170000911C1630A2091FBF0F070BD000000202E
:1031800010B500240220FFF7E1FB40F6CE71884223
:1031900001D3012418E0A0F6211140F2AD62914262
:1031A00001D2022410E0A0F13D0140F6E402914278
:1031B00001D2032408E0A0F10801352901D204243A
:1031C00002E0082800D20524204610BD8AB0FDF791
:1031D00071FFFEF7B1FEFEF7F5FDFEF757FEFEF7B5
:1031E000C9FDFEF787FE5248FEF7DCFBFFF756FCF1
:1031F000FFF79AFB4F4C504DDFF84081DFF84091CC
:10320000FFF74EFAFFF726FAFDF7BCF90646FFF77F
:10321000A9FE0746FFF75AFF02463B4649A101A80F
:103220000096FEF77DFF00210846FFF712FB01A87C
:10323000FFF723FB606A012804D0022808D0032886
:103240000FD01CE0FFF766FA034644A1A26A04E02F
:10325000FFF760FAA26A034645A101A8FEF760FFE6
:1032600006E0FFF757FA024647A101A8FEF758FF0C
:1032700000210120FFF7EDFA01A8FFF7FEFAFFF7A2
:103280007FFF012810D0FFF77BFF022812D0FFF745
:1032900077FF032814D0FFF773FF042816D0FFF739
:1032A0006FFF052818D026E0E06AFDF76BF90246AB
:1032B0003AA116E0E06AFDF765F902463DA110E08B
:1032C000E06AFDF75FF902463FA10AE0E06AFDF718
:1032D00059F9024642A104E0E06AFDF753F90246BB
:1032E00044A101A8FEF71CFF00210220FFF7B1FA5C
:1032F00001A8FFF7C2FAE069FDF737F92A4643460D
:10330000FDF738F802460B4600204946FDF7A4F8C1
:10331000FDF751F902463EA101A8FEF701FF002189
:103320000320FFF796FA01A8FFF7A7FA68E7000065
:10333000A4000020000000202D431CEBE2361A3FC1
:103340000000F03F543A25646F4320503A2533641F
:10335000506120413A25646D00000000564D3A2529
:10336000642525442056656E746F3A25646F00000D
:10337000564D3A252E32642525452056656E746FCC
:103380003A25646F00000000564D3A506172616446
:103390006F2056656E746F3A25646F0043687576CA
:1033A000613A25646D6D2020534F4C202020202051
:1033B0000000000043687576613A25646D6D202039
:1033C000504152204E55420043687576613A25645B
:1033D0006D6D20204E55424C41444F20202020004E
:1033E00043687576613A25646D6D2020414E4F49E2
:1033F0005445000043687576613A25646D6D202060
:103400004E4F49544520202020202020000000005D
:1034100056656C2056656E746F3A2532646B6D2F5D
:10342000680000002DE9F04D1D460C4698B0174687
:1034300021F0004123F00043002814BF4FF0010C9D
:103440004FF0000C0CEB440CFE4A0CEB02064FEA6A
:10345000620C66452BD33E0018BF012606EB4506DD
:103460001644F94A964222D3F84A53EA070C02D08E
:10347000944205D148B918B000201146BDE8F08D3E
:10348000002808BF4FF0000C01D04FF0010C0CEBEE
:10349000440212F5001F0AD8002F14BF4FF0010C90
:1034A0004FF0000C0CEB450212F5001F07D918B0C5
:1034B0003A462B462146BDE8F04DFEF7C7BE002236
:1034C000DFF88CA3002CB8BF534526DADFF884C39D
:1034D0006345A8BF022220DADFF870C39C451CDCDC
:1034E000DFF874C30CEB235CBCF1140F08DDCCF1E6
:1034F000340627FA06FC0CFA06F6BE420DD108E0A7
:103500005FB9CCF1140623FA06FC0CFA06F69E42CB
:1035100003D10CF00102C2F1020251EA000C19D1F0
:10352000002D17DA002C18BF022A01D0012A07D07B
:103530000220FEF7B3FE18B0BDE8F04DFEF77EBEE8
:103540000220FEF7ABFEFEF779FE18B081F00041D5
:10355000BDE8F08DB7F1000C6CD1534525D104F1D5
:10356000804212F5801201BF00280020B74918B030
:1035700008BFBDE8F08DB548884207DC002DA1BF2B
:103580006046294618B0BDE8F08D07E0281E05DA30
:1035900080F0004118B06046BDE8F08DAF49794435
:1035A000D1E9000118B0BDE8F08DDFF8A0C2634595
:1035B00025D1002D1FDA19B1514512D1D8B909E032
:1035C000002840F0EC82A24A214618B062F31E01A6
:1035D000BDE8F08D0020214618B060F31E01BDE863
:1035E000F08D08DA18B02346BDE8F04D0246002001
:1035F0006146FCF731BF18B02146BDE8F08D51455A
:1036000018DAB5F1804F0DD0A5F1005CBCF1FF5C7C
:1036100010D1B4F1000C0DDB18B06146BDE8F04DDF
:1036200000F0ECBB234618B00246BDE8F04D194649
:10363000FCF7A0BE060024F0004C3BD1D9B15145A7
:1036400033D1002C06DD002DA1BF0020514618B05B
:10365000BDE8F08D002C01DD002D1BDB002C13DA02
:10366000002D11DB012A4FF0000014BF78497C497E
:1036700018B0BDE8F08D022A18BF002C0AD0012A2C
:1036800008D1002C06DA0AE0002CB8BF002D11DAB0
:10369000012A04D0002018B00146BDE8F08D18B012
:1036A00000204FF00041BDE8F08DA1F14050B0F195
:1036B0007F601AD0012000EBE47050EA020421D0B0
:1036C000624C521E4FF0000B104304BF4FF0000B32
:1036D000644C654883427CDD644A654893421FDD43
:1036E000884217DB002D25DB37E0002C00DA4AB1D9
:1036F000022A0CBF01204FF0FF3018B0BDE8F04D9A
:10370000FCF722BF0120FEF7C9FD18B0BDE8F04D5F
:10371000FEF79EBD4D4A8A4202DC002D0ADC1CE009
:10372000814202DA002D18DA04E0484B994220DD8C
:10373000002D12DD0220FEF7B1FDFEF78FFD0546DC
:103740000E460022534658462146FCF713FE18B099
:1037500066F31E012846BDE8F08D0220FEF79EFDAF
:10376000FEF784FD0A46214618B062F31E01BDE84B
:10377000F08D002230466146FCF7F6FD80460E468D
:103780006FF00102FDF71DF84FF05532394BFCF791
:10379000EEFD42463346FCF7EDFD0022364BFCF7CA
:1037A000E6FD824642463346049110461946FCF730
:1037B000E1FD5246049BFCF7DDFD8A4600904FF088
:1037C000C0422E4B40463146FCF7D4FD2C4A2B4BD1
:1037D00000E027E0CDE9060151460098FCF7CAFD5C
:1037E00082460191274A284B40463146FCF7C2FDEC
:1037F0005246019BFCF7B8FD82460B4602460591F6
:10380000DDE90601FCF70FFDDDE906230026884609
:103810003046FCF7A9FD5246059BFCF7A8FD024681
:1038200000F07EB90020B1F5801F07DA352230465E
:103830006146FCF7C6FF06466FF0340000EB2150EE
:1038400024E00000FFFF1F00FFFF0F000000F03F1B
:103850000000F07F0000404301FCFFFFB6090000BC
:103860000000F0FF0000F0BF0000E0410000F04366
:10387000FFFFEF3F5555D53F0000E03F4715F73FAD
:10388000FE822B6544DF5DF80BAE543EA0F2FF30A4
:103890000190C1F3130040F07F6141F0405102916B
:1038A000FE498842D8BF002004DDFD498142C8BFDF
:1038B000012001DD0D9008E000200D900198401CD2
:1038C00001900298A0F5801002900299F548784482
:1038D0000B910D9900EBC100D0E900230F93304606
:1038E0000A920B99FCF740FDCDE90601DDE90A21BA
:1038F00030460F9BFCF797FC02460B460020EA4936
:10390000FCF7AAFD059102460B460090DDE9060191
:10391000FCF730FD1490E5488A464FF000087844E3
:103920000299006812904FF0005040EA61010D9832
:103930000F9B01EB804000F5002109910A9A129833
:10394000FCF712FD32460B9BFCF711FD4246534635
:10395000FCF710FD0646029140465146099B129A1B
:10396000FCF708FDDDE90623FCF701FD3246029B6A
:10397000FCF7FAFC059B009AFCF7FCFC0091149AFA
:103980000490534610461946FCF7F4FC06460246DE
:10399000C7480B46029106217844FEF7F9FBCDE9B2
:1039A0000510029B324610461946FCF7E3FCDDE9A0
:1039B0000532FCF7DFFC05910646534640461946A2
:1039C000149AFCF730FC009B049AFCF7D3FC3246B7
:1039D000059BFCF728FCCDE90510424653461046EE
:1039E0001946FCF7C7FC0022B24B02910A90FCF783
:1039F0001AFCDDE90532FCF716FC0E464246AD4BDB
:103A00004046FCF7B1FC029B0A9AFCF7ADFCDDE9ED
:103A10000532FCF7ACFC424602910A903346104650
:103A20005146FCF7A7FCCDE906015346149A0299CA
:103A30000A98FCF79FFC8A4602903346424600995A
:103A40000498FCF797FC5346029AFCF7ECFB82467D
:103A50000B4602460591DDE90601FCF7E4FBDDE9D2
:103A60000623002088460646FCF77EFC5246059B4E
:103A7000FCF77DFC824609914FF060428E4B304648
:103A80004146FCF777FC049006918C4A8A4B5046DD
:103A90000999FCF76FFC82460291894A894B3046AE
:103AA0004146FCF767FC5246029BFCF7BCFB864B89
:103AB0007B440D9A03EBC203D3E90023FCF7B3FB6D
:103AC0000E9007910198FCF73FFD0591DDE9061383
:103AD00082460E9A0498FCF7A6FB7C4A7A440D9B1A
:103AE00002EBC303D3E9002300930292FCF79BFB94
:103AF0005246059BFCF797FB002688465246304607
:103B0000059BFCF731FC009B029AFCF72DFC069B01
:103B1000049AFCF729FC079B0E9AFCF728FC024646
:103B200000200B46029038462946FCF723FC8246CB
:103B300001912B4638461946029AFCF715FC32468D
:103B40004346FCF717FC5246019BFCF76CFB07460B
:103B50008A463246434629460298FCF70BFC054646
:103B60000E463A465346FCF75EFB594A8846914258
:103B700021DBA8EB020353EA000210D12A463346A8
:103B8000FCF7F2FBCDE90401524A534B384651464B
:103B9000FCF749FBDDE90423FCF72AFE21D20220D1
:103BA000FEF77CFBFEF75AFB0A46214618B062F38B
:103BB0001E01BDE8F08D494B28F000429A4210D317
:103BC000474A08EB020353EA00027FF4C6AD2A46D7
:103BD0003346FCF7C9FB3A465346FCF709FE7FF62D
:103BE000BCAD0022019228F000403E493E4A01EB64
:103BF0002051824223DA481C4FF4801121FA00F050
:103C000040443A4AC0F30A517A44394BA1F2FF3199
:103C1000CB4020EA0303C0F3130040F48010C1F14D
:103C20001401C84012680190B8F1000FBCBF4042B7
:103C3000019028463146FCF797FB05460E462A467A
:103C4000334638465146FCF7EEFA4FF0000842463C
:103C5000284B40460591FCF78DFBCDE90601264A2D
:103C6000264B40460599FCF785FB009102902A46B9
:103C7000334640460599FCF777FB3A465346FCF736
:103C800076FB1F4A1F4BFCF775FB009B029AFCF763
:103C9000CAFA0746884602460B4635E08E9803006E
:103CA0007AB60B00FE0500000000F03F360600006B
:103CB000640500000000084009C7EE3FFD033ADC40
:103CC000F5015B14E02F3EBE3C0400000004000040
:103CD00000009040FE822B654715973C00CC904039
:103CE00000346F3F01FCFFFF0000E03F4C03000089
:103CF000FFFF0F00432EE63F396CA80C615C20BE2D
:103D0000EF39FAFE422EE63FDDE90601FCF78BFAB9
:103D1000DDE9062305460E46FCF726FB3A464346F8
:103D2000FCF725FB0F462A463346009010461946FD
:103D3000FCF720FB824602462E4888460B460521AA
:103D40007844FEF725FA52464346FCF713FB2A4611
:103D50003346FCF70CFB80468A463B4628463146F4
:103D6000009AFCF707FB3B46009AFCF75CFA0691C9
:103D7000009000224FF0804340465146FCF7F4FA91
:103D80000F460C904246534628463146FCF7F2FA5D
:103D90003B460C9AFCF760FB069B009AFCF7E4FAA2
:103DA0002A463346FCF7E0FA0022134BFCF7DFFA11
:103DB000054601980E4601EB00510815002810DC5D
:103DC00028463146019AFCF7FCFCFEF7BDF90428B1
:103DD00008BFFEF74BFA28463146019AFCF7F1FC82
:103DE00005460B4618B02A4658462146BDE8F04D18
:103DF000FCF7C0BAEC0100000000F03F2DE9F041F3
:103E000006460F46FCF71EFD041E0D4618BF012096
:103E1000284320F00040C0F17F6000F1E040C00F77
:103E20000ED0301C18BF0120384320F00040C0F1F4
:103E30007F6000F1E040C00F04BF0120FEF72EFAC2
:103E400020462946BDE8F08110B50C4C4FF4806047
:103E500020600120FDF702F8E01420600120FCF74B
:103E6000FDFFA00520600120FCF7F8FFE0052060C1
:103E7000BDE810400120FCF7F1BF00001008014030
:103E800010B50C4C4FF0806020600120FCF7E6FF7D
:103E9000E00520600120FCF7E1FFE0142060012034
:103EA000FCF7DCFF20152060BDE810400120FCF786
:103EB000D5BF000010080140000000000000000015
:103EC00001020304060708090000000001020304C0
:103ED000000000000000F03F000000000000F83F7C
:103EE00000000000000000000000004003B8E23FB6
:103EF000000000000000000006D0CF43EBFD4C3E68
:103F0000033333333333E33FFFAB6FDBB66DDB3F5C
:103F10004D268F515555D53F01411DA96074D13FA4
:103F200065DBC9934A86CD3FEF4E454A287ECA3F9E
:103F30003E5555555555C53F93BDBE166CC166BF20
:103F40002CDE25AF6A56113FF16BD2C541BDBBBE19
:103F5000D0A4BE726937663E000000000000000079
:103F6000803F000800000020740000007C22000850
:103F7000F43F000874000020BC0400008C220008FC
:103F80000000000000000000000000000000000031
:103F90000000000000000000000000000000000021
:103FA0000000000000000000000000000000000011
:103FB0000000000000000000000000000000000001
:103FC00000000000000000000000000000000000F1
:103FD00000000000000000000000000000000000E1
:103FE0000100000010000000000000000024F400A8
:043FF00000000000CD
:04000005080000ED02
:00000001FF
