:020000040800F2
:10000000E0040020010100082B160008E31400089A
:1000100029160008390200085F17000800000000D8
:100020000000000000000000000000002F16000883
:100030003B020008000000002D16000831160008E1
:100040001B0100081B0100081B0100081B01000820
:100050001B0100081B0100081B0100081B01000810
:100060001B0100081B0100081B0100081B01000800
:100070001B0100081B0100081B0100081B010008F0
:100080001B0100081B0100081B0100081B010008E0
:100090001B0100081B0100081B0100081B010008D0
:1000A0001B0100088D1600081B0100081B01000839
:1000B0001B0100081B010008000000001B010008D4
:1000C0001B01000800000000000000001B010008E8
:1000D000000000001B0100081B01000800000000D8
:1000E0001B0100081B0100081B010008DFF80CD0F1
:1000F00000F032F800480047D5180008E00400205E
:100100000648804706480047FEE7FEE7FEE7FEE7B1
:10011000FEE7FEE7FEE7FEE7FEE7FEE789160008DA
:10012000ED000008D2B201E000F8012B491EFBD21D
:1001300070470022F6E710B513460A4604461946F2
:10014000FFF7F0FF204610BD421C10F8011B0029EC
:10015000FBD1801A70470000064C074D06E0E068AE
:1001600040F0010394E8070098471034AC42F6D3FE
:10017000FFF7C0FF101900083019000870B50446D9
:1001800000688168C943C9071CD1816821F0010159
:10019000816000F09BFB05460FE000BF00F096FB7E
:1001A000401B022809D9A06A40F01000A062E06A52
:1001B00040F00100E062012070BD20688068C0430B
:1001C000C007EBD0002070BDF8B5002604460096AD
:1001D00000688168C943C90728D0816841F00101DE
:1001E0008160134813490068B0FBF1F000E0401E45
:1001F00000900028FBD100F069FB054611E000BF2C
:1002000000F064FB401B02280BD9A06A40F01000EC
:10021000A062E06A40F00100E06284F824600120FE
:10022000F8BD20688068C043C007E9D10020F8BD50
:100230006400002040420F00FEE770477047000056
:10024000F8B50024009490F824202546012A12D005
:10025000012280F824204A681F23072A0DD206684D
:10026000776B521E02EB820293409F430B689340D0
:100270001F43776319E00220F8BD06680D2A0AD2F1
:10028000376BD21F02EB820293409F430B6893406F
:100290001F43376309E0F76A0D3A02EB820293408D
:1002A0009F430B6893401F43F7620A680723066861
:1002B0000A2A0AD3F7680A3A02EB420293409F43A4
:1002C0008B6893401F43F76008E0376902EB4202F6
:1002D00093409F438B6893401F4337610A68102AFD
:1002E00001D0112A20D1124B02689A4217D193688B
:1002F0001B0219D4936843F4000393600968102922
:1003000012D10C490C4A0968B1FBF2F101EB8101F1
:10031000490000E0491E00910029FBD104E0816AF8
:1003200041F020018162012480F824502046F8BD6C
:10033000002401406400002040420F000068C06CAF
:10034000704700002DE9F0414FF0000704003D46E2
:100350007ED0A06A002628B9E66284F82460204690
:1003600000F07EF82046FFF709FFA16AC90600D415
:1003700020B1A06A40F01000A06269E0A16A21F4F7
:10038000885141F00201A1626268E169237B0A435E
:1003900047EA43010A43A1684FF48077B94209D084
:1003A000012907D05FF0000194F814C0BCF1010FDF
:1003B00002D00AE03946F7E7F3B1A36A43F020031D
:1003C000A362E36A43F00103E3622368D3F804C045
:1003D0002CF4694C4CEA010CC3F804C021688B680A
:1003E000DFF870C003EA0C0313438B60A168B942C5
:1003F0000BD0012909D00CE0DFF85CC0A3690CEB3D
:1004000043330B4343F40061DFE7218A0D05A5F573
:1004100080152168CB6A23F470032B43CB622168DB
:1004200089680E4B1940914208D1E662A16A21F019
:10043000020141F00101A162BDE8F081A06A20F053
:10044000020040F01000A062E06A40F00100E062AB
:100450000120F1E7FDF7E1FF00E0FFFFFE0E1FFFC7
:1004600000B585B0002100910191029103910068CF
:100470000E49884218D10E48816941F400718161AA
:10048000816901F400710491816941F00801816181
:100490008069694600F00800049001200090032064
:1004A0000190044800F02CF905B000BD0024014083
:1004B00000100240000C01402DE9F84300260D46D3
:1004C0000446009600F002FA804620688168C9055B
:1004D00008D5A06A40F02000A06284F824600120C2
:1004E000BDE8F8834168C90503D4C06A10F4700FF1
:1004F00026D0022000F088FA38490968B1FBF0F7ED
:100500002068036936490B424FEA61014FEAA112A4
:100510001BD1C3684FEA611C13EA0C0F15D10369A4
:100520000B4221D1C06810421ED114201FE0681C6C
:1005300006D045B300F0CAF9A0EB0800A84222D8C3
:10054000206800688007F2D52AE003690B4202D1D7
:10055000C168114206D0026922490A4206D1C06828
:10056000084203D1542002E0292000E0FC20474348
:10057000009813E0681C0ED02DB100F0A7F9A0EB95
:100580000800A84207D9A06A40F00400A06284F8DD
:1005900024600320A4E70098401C0090B842E9D3EF
:1005A00021686FF012000860A06A40F40070A06239
:1005B00020688068C0F3424007280CD1207B50B9E6
:1005C000A06A20F48070A062A06AC00403D4A06A6C
:1005D00040F00100A062002082E7000064000020DB
:1005E000244992244992240070B5044690F82400CE
:1005F00001280DD0012084F824002046FFF7E4FDF7
:1006000002004FF0000005D084F82400104670BDB1
:10061000022070BDA16A40F20123994341F4807128
:10062000A1621F4D23681F49AB4218D10E6816F412
:10063000702F14D0A66A46F48016A6620E6876055E
:1006400005D5A66A26F4005646F48056A662A66A28
:10065000F6040AD5E66A26F00606E66206E0A66A11
:1006600026F48016A6625E68E9E7E06284F824005A
:100670006FF00200186020688368C3F34243072BC1
:1006800005D1A84208D1096811F4702F04D08168FF
:1006900041F480118160B9E7816841F4A001F9E774
:1006A000002801400424014010B5044690F82400BD
:1006B000012807D0012084F824002046FFF75EFDC2
:1006C00010B107E0022010BDA16A21F4885141F069
:1006D0000101A162002184F8241010BD70B5044608
:1006E00000F0F4F80546601C02D004480078044489
:1006F00000F0ECF8401BA042FAD370BD5800002077
:100700002DE9F84FDFF89C91002409F1040A0AF161
:10071000040B23460F270BF1040EBBE00125A54077
:100720002A40AA4276D1DFF880C14E68A6EB0C08B9
:1007300066452BD00DDC032E34D005DC36B3012EFC
:1007400019D0022E2FD11BE0112E16D0122E2AD135
:1007500019E0B8F5881F19D006DCB8F5803F15D030
:10076000B8F5801F1FD111E0B8F5001F0ED0B8F505
:10077000041F18D10AE0CB6815E0CB681B1D12E0FE
:10078000CB6808330FE0CB680C330CE08B682BB1DF
:10079000012B4FF0080303D0456104E0042302E07D
:1007A000056100E00023FF2A01D8064601E000F1C0
:1007B00004064FEA840501D9A5F12005D6F800808A
:1007C00007FA05FC28EA0C0803FA05F548EA0508CB
:1007D000C6F800804D68ED005BD5344DAE6946F03B
:1007E0000106AE61AD6924F0030605F00105009530
:1007F0002F4D06EB050CDCF80850A607360F07FA5C
:1008000006F825EA0805DFF8AC80404503D14FF033
:10081000000810E03DE0DFF8A080404502D14FF035
:10082000010808E0DFF89480404502D14FF002084B
:1008300001E04FF0030808FA06F848EA0508CCF88A
:1008400008804D68D9F80060ED034D4601D5164388
:1008500000E096432E604D68DAF80060AD0355461F
:1008600001D5164300E096432E604D68DBF800602A
:10087000ED025D4601D5164300E096432E604D68BB
:10088000DEF80060AD02754601D5164300E09643E0
:100890002E60641C0A6832FA04F57FF43FAFBDE8AD
:1008A000F88F000000040140000011100010024009
:1008B0000000014000080140000C01400010014010
:1008C0000AB1016170470904FBE700000148806834
:1008D00070470000580000200248816802781144E7
:1008E0008160704758000020074810B5016841F04A
:1008F00010010160032000F075F8002000F006F8F8
:1009000000F024F8002010BD0020024070B50D4D0D
:1009100004464FF47A712878B1FBF0F00A4909686F
:10092000B1FBF0F000F0B6FB48B9102C07D2002262
:100930002146501E00F036F800206C6070BD01208A
:1009400070BD000058000020640000200C4808B56D
:10095000816941F001018161816901F0010100912A
:10096000C16941F08051C161C06900F080500090C0
:100970000448416821F0E06141F08061416008BDB8
:100980000010024000000140002809DB00F01F02B7
:10099000012191404009800000F1E020C0F80011E1
:1009A00070470000F0B40E4B1B680C46C3F30223E3
:1009B000C3F10705042D00D90425191D072901D20B
:1009C000002300E0DB1E012606FA05F1491E214046
:1009D00099409E40761E16403143F0BC00F0C0BEE8
:1009E0000CED00E0064900F0070208684FF6FF032F
:1009F000184040EA0220034A104308607047000094
:100A00000CED00E00000FA0510B529A401461DCC4C
:100A100086B08DE81D002AA02A4C006804900020B2
:100A2000012923D002293AD010291DD161682268FA
:100A3000D20119D5C1F38342C9031DF8020009D5BB
:100A4000616804AAC1F34041515C1F4AB2FBF1F155
:100A5000484301E01D4948436168490204D440000D
:100A60005FF00301B0FBF1F006B010BD226AC2F3E3
:100A70000121012903D1920701D5C803F4E7022916
:100A800005D1626A920702D549F64040ECE7032996
:100A9000EAD121688903E7D54FF22440E4E700F06A
:100AA00023F96168C1F38131491C4900DAE700008C
:100AB00002030405060708090A0B0C0D0E0F10109F
:100AC000010200000010024000127A0000093D00FF
:100AD0002DE9F84305460078354CC00754D0E0694D
:100AE0000026C00008D4E06940F08050E061E06971
:100AF000012600F0805000902E480168C90512D4EC
:100B00000168804641F480710160FFF7DFFE07460F
:100B100005E000BFFFF7DAFEC01B642823D8D8F831
:100B20000000C005F6D5206A10F4407021D0A988D5
:100B300001F4407181421CD0206A1F49012220F437
:100B400040700A6000220A602062C00711D0FFF7DF
:100B5000BDFE074641F2883808E000BFFFF7B6FE49
:100B6000C11B414502D90320BDE8F883206A8007F4
:100B7000F4D5206A696820F44070084320621EB1F1
:100B8000E06920F08050E0612878800705D5606832
:100B9000A96820F44040084360602878C00605D565
:100BA0006068E96820F48000084360600020DBE7AB
:100BB0000010024000700040400442422DE9F0471E
:100BC0000F46050061D0434E306800F00700B84280
:100BD00009D2306820F0070038433060306800F0F8
:100BE0000700B84251D128683B4C810712D5400715
:100BF00003D5606840F4E06060602878000703D5A2
:100C0000606840F4605060606068A96820F0F0009F
:100C1000084360602878C00728D06868012810D091
:100C20002168022810D0890700292EDA616821F096
:100C3000030101436160FFF749FE804641F28839B4
:100C40000DE021688903EFE78901EDE7FFF73EFE3C
:100C5000A0EB0801494502D90320BDE8F087606890
:100C6000696800F00C00B0EB810FEFD1306800F044
:100C70000700B8420BD9306820F0070038433060D5
:100C8000306800F00700B84201D00120E5E728787D
:100C9000400705D56068E96820F4E06008436060BB
:100CA0002878000706D56068296920F4605040EA7A
:100CB000C100606000F028F86168084AC1F30311C0
:100CC000515CC8400649086006480068FFF71EFEF0
:100CD0000020C2E70020024000100240F81800087F
:100CE000640000205C000020044805490068496851
:100CF000044AC1F3C221515CC8407047640000201F
:100D0000001002400819000812A185B00FC98DE833
:100D10000F0014A0144A006804905168134801F0B1
:100D20000C03042B10D0082B0ED1C1F38343C9034D
:100D30001DF803000AD5516804AAC1F34041515C73
:100D40000A4A5043B0FBF1F005B0704708494843E8
:100D5000FAE7000002030405060708090A0B0C0D58
:100D60000E0F1010010200000010024000127A0065
:100D700000093D002DE9F84F040070D02078C04DE7
:100D8000C00749D06868C0F38100012807D06868AF
:100D9000C0F38100022809D16868C00306D528681D
:100DA000800339D560680028E7D035E06068B0F589
:100DB000803F0BD010B1B0F5A02F11D0286820F4DF
:100DC00080302860286820F4802002E0286840F401
:100DD00080302860606890B1FFF778FD06460AE031
:100DE000286840F480202860F0E700BFFFF76EFD20
:100DF000801B642873D828688003F7D50CE0FFF7C0
:100E000065FD064605E000BFFFF760FD801B642816
:100E1000F0D828688003F7D420789A4E80074FF0E6
:100E200001094FF0000839D5686810F00C0F07D0A1
:100E30006868C0F38100022809D16868C00306D43D
:100E40002868800714D52069012808D110E020699E
:100E5000B0B1C6F80090FFF739FD074605E00AE19A
:100E6000FFF734FDC01B0228C4D828688007F7D5D7
:100E70002868616920F0F80040EAC10028600DE0B0
:100E8000C6F80080FFF722FD074604E0FFF71EFDCD
:100E9000C01B022823D828688007F7D420780007D1
:100EA0002CD57948A169D9B1C0F80090FFF70EFDA3
:100EB000074604E0FFF70AFDC01B02280FD8686A46
:100EC0008007F7D571484FF4FA510068B0FBF1F094
:100ED000009000BF0098411E0091FAD20EE080E021
:100EE000C0F80080FFF7F2FC074604E0FFF7EEFCD5
:100EF000C01B022875D8686A8007F7D4207840079D
:100F000060D5E8690027C00008D4E86940F0805047
:100F1000E861E869012700F0805000905C480168B2
:100F2000C90513D40168834641F480710160FFF75D
:100F3000CDFC824606E000BFFFF7C8FCA0EB0A002C
:100F400064284ED8DBF80000C005F5D5E06801281C
:100F50000AD008B1052813D0286A20F001002862C1
:100F6000286A20F0040002E0286A40F001002862AC
:100F7000E06841F2883B98B1FFF7A8FC82460BE09D
:100F8000286A40F004002862EEE700BFFFF79EFCED
:100F9000A0EB0A0159455AD8286A8007F6D50CE01B
:100FA000FFF794FC824605E0FFF790FCA0EB0A01F6
:100FB00059454CD8286A8007F6D41FB1E86920F05B
:100FC0008050E861E06988B36968C1F38101022952
:100FD00044D00228C6F8608004D0FFF777FC0446AE
:100FE00038E034E0FFF772FC074604E0FFF76EFCE0
:100FF000C01B02282BD828688001F7D4206AB0F5DE
:10100000803F05D16868A16820F40030084368601B
:10101000D4E908010843696821F474110843686041
:10102000C6F86090FFF752FC044606E025E000BFDA
:10103000FFF74CFC001B022809D828688001F7D56F
:101040001BE000BFFFF742FC001B022802D903206F
:10105000BDE8F88F28688001F4D40EE00128F7D0AD
:101060006868226A00F48031914204D1616A00F418
:101070007010884201D00120EAE70020E8E7000074
:1010800000100240000042428004424264000020FE
:101090000070004010B5401EB0F1807F01D30120E8
:1010A00010BD4FF0E02460610F21601700F058FB85
:1010B0000020A06107202061002010BD704770470C
:1010C00070B590F83C20012A23D0012480F83C40E0
:1010D000022280F83D2003685A689D6822F070065D
:1010E0000A6832435A600C4B02689A4205D0B2F14A
:1010F000804F02D0094B9A4204D1496825F0800301
:101100001943916080F83D40002180F83C1008466A
:1011100070BD022070BD0000002C014000040040A2
:1011200010B5040003D094F83D0010B107E0012091
:1011300010BD002084F83C00204600F01FF802207B
:1011400084F83D00211D206800F0A6FA012084F8F3
:10115000460084F83E0084F83F0084F8400084F89C
:10116000410084F8420084F8430084F8440084F885
:10117000450084F83D00002010BD000008B500685F
:101180000B49884212D10B48816941F400618161A9
:101190008069002200F40060009011461920FFF7DA
:1011A00001FCBDE808401920FFF7EEBB08BD0000B8
:1011B000002C01400010024090F83D10012901D0A0
:1011C00001207047022180F83D100168CA6842F092
:1011D0000102CA6000680A49884205D0B0F1804F18
:1011E00002D00849884204D1816801F0070106292C
:1011F00003D0016841F00101016000207047000048
:10120000002C01400004004070B5044690F83C00FA
:10121000012817D0012584F83C50022084F83D00B5
:101220002068826822F0770222F47F428260086898
:10123000502830D00DDC20284DD005DC98B3102884
:101240003BD148E0022070BD302844D0402834D142
:1012500039E0602828D0702806D0B0F5805F2CD007
:10126000B0F5005F29D10AE0CB68D1E901212068FF
:1012700000F040FA2068816841F0770109E0CB680E
:10128000D1E90121206800F035FA2068816841F435
:101290008041816011E0CA684968206800F03CFA2A
:1012A0005021206807E016E0CA684968206800F00D
:1012B00044FA6021206800F027FA84F83D500020AD
:1012C00084F83C0070BDCA684968206800F024FAC0
:1012D00040212068EFE7226801461046EBE770479F
:1012E00070B50446006801694FF00005C9438907DD
:1012F00015D4C168C943890711D4E91E01610120D1
:101300002077206880698007204602D0FFF7E7FF3A
:1013100004E000F098F8204600F096F82577206861
:101320000169C943490717D4C168C943490713D4A0
:101330006FF004010161022020772068806910F4B9
:10134000407F204602D0FFF7CAFF04E000F07BF8A0
:10135000204600F079F8257720680169C94309071C
:1013600016D4C168C943090712D46FF0080101619E
:10137000042020772068C0698007204602D0FFF74C
:10138000AEFF04E000F05FF8204600F05DF825773E
:1013900020680169C943C90617D4C168C943C90691
:1013A00013D46FF010010161082020772068C06914
:1013B00010F4407F204602D0FFF791FF04E000F0D8
:1013C00042F8204600F040F8257720680169C943BB
:1013D000C90708D1C168C943C90704D1891E016181
:1013E000204600F033F820680169C943090609D492
:1013F000C168C943090605D46FF080010161204628
:10140000FFF75CFE20680169C943490609D4C16839
:10141000C943490605D46FF040010161204600F040
:101420005FF820680169C94389060BD4C168C943C4
:10143000890607D46FF0200101612046BDE87040A5
:10144000FFF73DBE70BD70477047000070B500F0FB
:1014500023FA04460521012000F0A1F91CA000F0A8
:10146000B2F91D4D1D4E4FF06401A869401CA861E2
:1014700040F2F370844205D84C43B4FBF0F00022F4
:10148000E86106E0A4F2F3744C4394FBF0F001220F
:10149000E86108213046FFF713FAD5E906014FF459
:1014A0000054884201DC012200E00022214630463F
:1014B000FFF706FAA869642808DB0020A861214626
:1014C0003046BDE870400122FFF7FAB970BD000058
:1014D000544553544532000000000020000C0140E8
:1014E0007047FEE73EB50024114800940194029431
:1014F0000E498460016004730475012505614FF491
:1015000060214460C161FEF71DFF08B1FEF796FE41
:101510000820CDE90005694602940548FEF790FED3
:10152000002801D0FEF78AFE3EBD000000240140E5
:10153000680000202DE9F04385B000241D48009488
:10154000019402940394816941F0040181618169ED
:1015500001F004010491816941F008018161806911
:10156000DFF8548000F0080040F6FF750490002278
:1015700029464046FFF7A4F9DFF8409046F20807F5
:10158000002239464846FFF79BF9009502260125BF
:101590000396CDE9015469464046FFF7B1F800973C
:1015A0000396CDE9015469464846FFF7A9F805B00E
:1015B000BDE8F0830010024000080140000C01402B
:1015C00010B586B000241748009401940294039447
:1015D00004941349059401604FF44871C0E9011463
:1015E0000121C0E9031444618461FFF799FD08B14A
:1015F000FEF724FE4FF48050009069460948FFF73B
:1016000003FE08B1FEF71AFE049404A905480594E8
:10161000FFF756FD002801D0FEF710FE06B010BD02
:10162000002C014098000020FEE77047704770478B
:10163000FFF752B930B593B028216846FEF779FD1F
:1016400014210AA8FEF775FD002401200F9402253D
:101650000490009510201194059010941294079412
:101660006846FFF787FB0F20CDE90A040C940D9420
:1016700000210AA80E94FFF7A1FA0FA80F95119464
:10168000FFF726FA13B030BD704700000148FFF79E
:1016900027BE00009800002070B50268134B144C60
:1016A0004FF08046984203D0B04201D0A04203D10F
:1016B00022F070054A682A43984203D0B04201D014
:1016C000A04203D122F44074CA6822434C6922F03C
:1016D0008002224302608A68C2620A68826298427B
:1016E00001D1096901630121416170BD002C0140F4
:1016F0000004004010B5846842EA032224F47F44C9
:101700000A432243826010BD826822F070020A43BD
:1017100042F007018160704710B5036A046A24F043
:1017200001040462846924F0F00444EA021423F002
:101730000A020A438461026210BD10B5036A23F0F5
:10174000100303628369046A23F4704343EA02329C
:1017500024F0A00343EA01118261016210BDFEE79B
:101760000907090E002804DB00F1E02080F80014CE
:10177000704700F00F0000F1E02080F8141D704762
:1017800002E008C8121F08C1002AFAD1704770474A
:10179000002001E001C1121F002AFBD1704710296F
:1017A00010DA48B1012809D0022809D0032809D14C
:1017B000D431C8B200F016B88031FAE7C031F8E78A
:1017C0009431F6E7704770B506460024FEF7BCFC7E
:1017D000054603E0305D00F029F8641CAC42F9DDF9
:1017E00070BD000070B5104D044600224FF400712A
:1017F0002846FFF765F80C49FF2014310860081FE0
:1018000004608415012221462846FFF759F801207B
:10181000FEF764FF002221462846FFF751F8BDE895
:1018200070400120FEF75ABF0008014070B5104D0E
:101830000446012251022846FFF742F80C49FF20D6
:1018400014310860081F04608415012221462846CF
:10185000FFF736F80120FEF741FF00222146284617
:10186000FFF72EF8BDE870400120FEF737BF0000FB
:101870000008014010B53820FFF7B4FF0E20FFF735
:10188000B1FF0620FFF7AEFF0120FFF7ABFFBDE879
:1018900010406420FEF722BF10B505210020FFF79D
:1018A0007EFF09A0FFF78FFF0948FEF79DFE642128
:1018B0000748FEF701FE0648FEF740FD84B20448E3
:1018C000FEF7F2FE204610BD54455354453100004A
:1018D00068000020FFF708F8FFF7ACFEFFF72AFECC
:1018E000FFF76EFEFFF7FEFD0248FFF765FCFFF70E
:1018F000C1FFFEE79800002000000000000000008B
:1019000001020304060708090000000001020304A5
:10191000301900080000002068000000801700084F
:10192000981900086800002078040000901700084B
:1019300000000000000000000000000000000000A7
:101940000000000000000000000000000000000097
:101950000000000000000000000000000000000087
:101960000000000000000000000000000000000077
:101970000000000000000000000000000000000067
:101980000000000000000000010000001000000046
:08199000000000000024F40037
:04000005080000ED02
:00000001FF
